:020000040800F2
:100000002804002045010008850A0008870A000826
:100010008B0A00088F0A0008930A000800000000FD
:10002000000000000000000000000000970A000827
:10003000990A0008000000009B0A00089D0A0008B9
:100040005F0100085F0100085F0100085F01000810
:100050005F0100085F0100085F0100085F01000800
:100060005F0100085F0100085F0100085F010008F0
:100070005F0100085F0100085F0100085F010008E0
:100080005F0100085F0100085F0100085F010008D0
:100090005F0100085F0100085F0100085F010008C0
:1000A0005F0100085F0100085F0100085F010008B0
:1000B0005F0100085F0100085F0100085F010008A0
:1000C0005F0100085F0100085F0100085F01000890
:1000D0005F0100085F0100085F0100085F01000880
:1000E0005F0100085F0100085F0100085F01000870
:1000F0005F0100085F0100085F0100085F01000860
:100100005F0100085F0100085F0100085F0100084F
:100110005F0100085F0100085F0100085F0100083F
:100120005F0100085F0100085F0100085F0100082F
:10013000DFF80CD000F0CEFC00480047330A00087E
:10014000280400200648804706480047FEE7FEE7EF
:10015000FEE7FEE7FEE7FEE7FEE7FEE7FEE7FEE777
:10016000310200083101000800210020674A1268AE
:1001700042F48032654B1A6000BF644A126802F490
:100180000030491C10B9B1F5A06FF6D15F4A126872
:1001900012F4003F01D0012000E00020012842D1EC
:1001A0005B4A126842F01002594B1A601A461268F4
:1001B00022F003021A601A46126842F002021A6024
:1001C000524A5268514B5A601A4652685A601A464F
:1001D000526842F480625A601A46526822F47C12D5
:1001E0005A601A46526842F4E8125A601A46126877
:1001F00042F080721A6000BF444A126812F0007F19
:10020000FAD0424A526822F00302404B5A601A4622
:10021000526842F002025A6000BF3C4A526802F043
:100220000C02082AF9D1704710B5FFF79DFF10BDE9
:1002300010B53648006840F00100344908600846AF
:1002400040683449084031494860084600683249EE
:1002500008402E4908600846006820F480200860A5
:100260000846406820F4FE0048604FF41F00886094
:10027000FFF7DAFF4FF000602849086010BD10B5A5
:10028000002100200022214B5B6803F00C0121B10A
:10029000042906D0082928D107E0214B214C2360EE
:1002A00027E01F4B1F4C236023E0184B5B6803F4CF
:1002B0007010164B5B6803F48032022303EB90400E
:1002C00022B9194B4343174C23600DE00F4B5B6879
:1002D00013F4003F04D0144B4343124C236003E05B
:1002E0000F4B43430F4C236003E00D4B0D4C236039
:1002F00000BF00BF054B5B68C3F303130B4CE15C0D
:10030000084B1B68CB40074C236010BD0010024017
:10031000002002400000FFF8FFFFF6FE08ED00E0BD
:1003200000127A000000002000093D0004000020B7
:1003300010B50446CA48844208D10121042000F0C7
:1003400025FB0021042000F021FB46E0C548844243
:1003500008D10121082000F019FB0021082000F03D
:1003600015FB3AE0C048844208D10121102000F07A
:100370000DFB0021102000F009FB2EE0BB48844259
:1003800008D10121202000F001FB0021202000F0F5
:10039000FDFA22E0B648844208D10121402000F055
:1003A000F5FA0021402000F0F1FA16E0B14884424D
:1003B00008D10121802000F0E9FA0021802000F01E
:1003C000E5FA0AE0AC48844207D10121801500F02B
:1003D000DDFA0021A01500F0D9FA10BD10B50121F9
:1003E000084600F0D3FA0021012000F0CFFA10BD3A
:1003F0002DE9F041024600250026002000230024BC
:10040000002791F803C00CF00F0591F803C01CF011
:10041000100F03D091F802C04CEA0505B1F800C0F6
:100420001CF0FF0F31D0146800202BE04FF0010CBE
:100430000CFA00F3B1F800C00CEA03069E4220D18A
:1004400083004FF00F0C0CFA03F7BC4305FA03FCD2
:100450004CEA040491F803C0BCF1280F06D14FF018
:10046000010C0CFA00FCC2F814C00AE091F803C0B9
:10047000BCF1480F05D14FF0010C0CFA00FCC2F89A
:1004800010C0401C0828D1D31460B1F800C0BCF1E2
:10049000FF0F34DD546800202EE000F1080C4FF00F
:1004A000010808FA0CF3B1F800C00CEA03069E42FA
:1004B00021D183004FF00F0C0CFA03F7BC4305FA6F
:1004C00003FC4CEA040491F803C0BCF1280F05D1E9
:1004D00000F1080C08FA0CF8C2F8148091F803C077
:1004E000BCF1480F07D100F1080C4FF0010808FAE1
:1004F0000CF8C2F81080401C0828CED35460BDE828
:10050000F0814FF6FF710180022181700421C170DA
:1005100070470246002093680B4201D0012000E0A2
:10052000002070470146886880B27047024600206C
:10053000D3680B4201D0012000E000207047014643
:10054000C86880B2704701617047416170470AB165
:10055000016100E041617047C16070474FF4803233
:100560000A438261816182618269826970470246C1
:100570000020424B18684FF68073184040EA021082
:1005800008433E4B186070473D49C8617047F0B55D
:100590000A46002300240021002500F00046B6F1A1
:1005A000004F02D1354EF16901E0344E7168C0F35D
:1005B000034583B200F44016B6F5401F08D121F080
:1005C00070612E4E766826F070662C4F7E6012E0C9
:1005D00000F48016B6F5801F06D1032606FA05F44E
:1005E000A14341F0706106E0460D360103FA06F6BC
:1005F000B14341F0706122B1460D360103FA06F6AF
:10060000314300F00046B6F1004F02D11B4EF161BC
:1006100001E01A4E7160F0BD30B500228B071C0F4F
:100620000F2303FA04F2154B08338C1053F82430CF
:100630009343124C08348D1044F8253023468C1017
:1006400053F824308C07240F00FA04F423430B4C96
:1006500008348D1044F8253030BD0A4908607047D1
:1006600000080140000C014000100140001401404E
:1006700000180140001C0140002001400000014022
:1006800000002042DC002042DC48006840F001000D
:10069000DA49086008464068D9490840D7494860A7
:1006A00008460068D7490840D449086008460068F1
:1006B00020F4802008600846406820F4FE0048606E
:1006C0004FF41F0088607047CC49096821F48031DD
:1006D000CA4A11601146096821F480211160B0F501
:1006E000803F03D0B0F5802F0ED106E0C3490968E2
:1006F00041F48031C14A116007E0C049096841F402
:10070000A021BE4A116000E000BF00BF704710B5D5
:1007100001460022002300204A11012A02D1B74CD1
:10072000236806E0022A02D1B44C236A01E0B34CEC
:10073000636A01F01F02012494401C4201D0012091
:1007400000E0002010BD70B500240025002600BF89
:100750003120FFF7DCFF0646641CB4F5A06F01D022
:10076000002EF5D03120FFF7D2FF08B1012500E0BF
:100770000025284670BD01460020A04A106820F0E0
:10078000F80040EAC100106070479F490860704758
:1007900002460020994B586820F47C1042EA01037D
:1007A0001843964B58607047974908667047014652
:1007B0000020924A506820F00300084350607047C0
:1007C0008E48406800F00C007047014600208B4ABC
:1007D000506820F0F0000843506070470146002048
:1007E000864A506820F4E060084350607047014634
:1007F0000020824A506820F4605040EAC1005060F6
:10080000704729B17D4A527A02437C4B5A7206E006
:100810007A4A527AC343DBB21A40784B5A72704715
:100820007A490860704701460020744A506820F4F5
:1008300040400843506070470021754A11706F4A6C
:1008400082F82010012802D0042808D103E00121F9
:100850006F4A117004E005216D4A117000E000BF7D
:1008600000BF70476B49086070476449096A0143DB
:10087000624A11627047674944390860704730B571
:1008800000210022002400235C4D6D6805F00C015E
:1008900021B1042905D0082923D105E05E4D05606A
:1008A00022E05D4D05601FE0544D6D6805F4701247
:1008B000524D6D6805F48034022505EB92421CB957
:1008C000564D554305600BE04C4D6D6815F4003FE7
:1008D00003D0524D5543056002E04F4D554305602E
:1008E00002E04D4D056000BF00BF444D6D6805F04E
:1008F000F00109094A4D6B5C0568DD4045603F4DDC
:100900006D6805F4E061090A454D6B5C4568DD40A2
:1009100085603A4D6D6805F46051C90A404D6B5CC5
:100920004568DD40C560354D6D6805F44041890B73
:100930003C4D6B5CC568B5FBF3F5056130BD29B175
:100940002E4A526902432D4B5A6104E02B4A5269E8
:1009500082432A4B5A61704729B1284A926902435F
:10096000264B9A6104E0254A92698243234B9A619F
:10097000704729B1214AD2690243204BDA6104E071
:100980001E4AD26982431D4BDA61704729B11B4A66
:10099000D2680243194BDA6004E0184AD2688243F5
:1009A000164BDA60704729B1144A12690243134B9F
:1009B0001A6104E0114A12698243104B1A617047B0
:1009C00014494039086070470F49C86470470B49A3
:1009D000C87170470948406A40F080700749486212
:1009E000704701460020054A92680A4201D0012062
:1009F00000E00020704701498872704700100240F3
:100A00000000FFF8FFFFF6FE00004242D80042421D
:100A1000201002408004424200127A0000093D008A
:100A2000140000202400002000E0401E0028FCD11B
:100A3000704700F035F820E008211048FFF785FDE9
:100A40000F48FFF7F1FF08210C48FFF77CFD10214C
:100A50000A48FFF77AFD0A48FFF7E6FF102107482A
:100A6000FFF771FD20210548FFF76FFD0448FFF7F0
:100A7000DBFF20210148FFF766FDDDE700100140A4
:100A8000EFFF0F00704700BFFEE700BFFEE700BFAB
:100A9000FEE700BFFEE770477047704770470000F1
:100AA00008B501211020FFF757FF3820ADF80000EE
:100AB00010208DF8030003208DF8020069460448D9
:100AC000FFF796FC38210248FFF73DFD08BD000006
:100AD00000100140064C074D06E0E06840F00103BD
:100AE00094E8070098471034AC42F6D3FFF724FB94
:100AF000180B0008380B000802E008C8121F08C1D4
:100B0000002AFAD170477047002001E001C1121F8E
:100B1000002AFBD170470000380B000800000020BD
:100B200028000000F80A0008600B000828000020D8
:100B300000040000080B000800A24A0400000000A6
:100B4000000000000102030406070809000000007D
:100B5000010203040102030406070809020406084F
:0400000508000131BD
:00000001FF
