:020000040800F2
:10000000489A002045010008C90B0008CB0B0008E6
:10001000CF0B0008D30B0008D70B0008000000002E
:10002000000000000000000000000000DB0B0008E2
:10003000DD0B000800000000ABB50008692F0008C8
:100040005F0100085F0100085F0100085F01000810
:100050005F0100085F0100085F0100085F01000800
:100060005F0100085F0100085F0100085F010008F0
:100070005F0100085F0100085F0100085F010008E0
:100080005F0100085F0100085F0100085F010008D0
:100090005F0100085F0100085F0100085F010008C0
:1000A0005F0100085F0100085F0100085F010008B0
:1000B0005F0100085F0100085F0100085F010008A0
:1000C0005F0100085F0100085F0100085F01000890
:1000D0005F0100085F0100085F0100085F01000880
:1000E0005F0100085F0100085F0100085F01000870
:1000F0005F0100085F0100085F0100085F01000860
:100100005F0100085F0100085F0100085F0100084F
:100110005F0100085F0100085F0100085F0100083F
:100120005F0100085F0100085F0100085F0100082F
:10013000DFF80CD00BF016FA00480047630B0008FC
:10014000489A00200648804706480047FEE7FEE739
:10015000FEE7FEE7FEE7FEE7FEE7FEE7FEE7FEE777
:1001600045020008310100080CB500200190009004
:100170006B48006840F480306949086000BF6848F7
:10018000006800F4003000900198401C0190009835
:1001900018B90198B0F5A06FF1D16148006810F46A
:1001A000003F02D00120009001E000200090009864
:1001B000012842D15B48006840F0100059490860AE
:1001C0000846006820F0030008600846006840F018
:1001D000020008605248406851494860084640683B
:1001E00048600846406840F48060486008464068BF
:1001F00020F47C1048600846406840F4E8104860ED
:100200000846006840F08070086000BF44480068FD
:1002100010F0007FFAD04248406820F003004049C7
:1002200048600846406840F00200486000BF3C4813
:10023000406800F00C000828F9D10CBD10B5FFF79C
:1002400093FF10BD10B53648006840F001003449F6
:10025000086008464068344908403149486008460B
:100260000068324908402E4908600846006820F4BA
:10027000802008600846406820F4FE0048604FF483
:100280001F008860FFF7DAFF4FF000602849086020
:1002900010BD10B5002100200022214B5B6803F047
:1002A0000C0121B1042906D0082928D107E0214BEF
:1002B000214C236027E01F4B1F4C236023E0184B89
:1002C0005B6803F47010164B5B6803F48032022302
:1002D00003EB904022B9194B4343174C23600DE0C8
:1002E0000F4B5B6813F4003F04D0144B4343124C94
:1002F000236003E00F4B43430F4C236003E00D4B9F
:100300000D4C236000BF00BF054B5B68C3F30313B4
:100310000B4CE15C084B1B68CB40074C236010BDC5
:1003200000100240002002400000FFF8FFFFF6FE30
:1003300008ED00E000127A000000002000093D00F6
:100340000400002031490143314A1160704770B503
:10035000002100230F22C4780CB32D4C246804F430
:10036000E064C4F5E064210AC1F10403CA404478A2
:1003700004FA03F18478144021430901254C0678DE
:10038000A155047804F01F050124AC4005786D11D7
:100390004FF0E02606EB8505C5F8004109E004783A
:1003A00004F01F050124AC401B4D0678761145F87A
:1003B000264070BD194A0A400243154B1B1F1A60A4
:1003C000704739B1124A121D12680243104B1B1DAF
:1003D0001A6006E00E4A121D126882430C4B1B1D68
:1003E0001A607047042808D14FF0E021096941F0F4
:1003F00004014FF0E022116107E04FF0E0210969AC
:1004000021F004014FF0E022116170470000FA056D
:100410000CED00E000E400E080E100E080FFFF1F61
:1004200010B50446CA48844208D10121042000F0D6
:1004300027FB0021042000F023FB46E0C54884424E
:1004400008D10121082000F01BFB0021082000F04A
:1004500017FB3AE0C048844208D10121102000F087
:100460000FFB0021102000F00BFB2EE0BB48844264
:1004700008D10121202000F003FB0021202000F002
:10048000FFFA22E0B648844208D10121402000F062
:10049000F7FA0021402000F0F3FA16E0B148844258
:1004A00008D10121802000F0EBFA0021802000F02B
:1004B000E7FA0AE0AC48844207D10121801500F038
:1004C000DFFA0021A01500F0DBFA10BD10B5012104
:1004D000084600F0D5FA0021012000F0D1FA10BD45
:1004E0002DE9F041024600250026002000230024CB
:1004F000002791F803C00CF00F0591F803C01CF021
:10050000100F03D091F802C04CEA050591F800C025
:10051000BCF1000F31D0146800202BE04FF0010C2B
:100520000CFA00F3B1F800C00CEA03069E4220D199
:1005300083004FF00F0C0CFA03F7BC4305FA03FCE1
:100540004CEA040491F803C0BCF1280F06D14FF027
:10055000010C0CFA00FCC2F814C00AE091F803C0C8
:10056000BCF1480F05D14FF0010C0CFA00FCC2F8A9
:1005700010C0401C0828D1D31460B1F800C0BCF1F1
:10058000FF0F34DD546800202EE000F1080C4FF01E
:10059000010808FA0CF3B1F800C00CEA03069E4209
:1005A00021D183004FF00F0C0CFA03F7BC4305FA7E
:1005B00003FC4CEA040491F803C0BCF1280F05D1F8
:1005C00000F1080C08FA0CF8C2F8148091F803C086
:1005D000BCF1480F07D100F1080C4FF0010808FAF0
:1005E0000CF8C2F81080401C0828CED35460BDE837
:1005F000F0814FF6FF710180022181700421C170EA
:1006000070470246002093680B4201D0012000E0B1
:10061000002070470146886880B27047024600207B
:10062000D3680B4201D0012000E000207047014652
:10063000C86880B2704701617047416170470AB174
:10064000016100E041617047C16070474FF4803242
:100650000A438261816182618269826970470246D0
:100660000020424B18684FF68073184040EA021091
:1006700008433E4B186070473D49C8617047F0B56C
:100680000A46002300240021002500F00046B6F1B0
:10069000004F02D1354EF16901E0344E7168C0F36C
:1006A000034583B200F44016B6F5401F08D121F08F
:1006B00070612E4E766826F070662C4F7E6012E0D8
:1006C00000F48016B6F5801F06D1032606FA05F45D
:1006D000A14341F0706106E0460D360103FA06F6CB
:1006E000B14341F0706122B1460D360103FA06F6BE
:1006F000314300F00046B6F1004F02D11B4EF161CC
:1007000001E01A4E7160F0BD30B500228B071C0F5E
:100710000F2303FA04F2154B08338C1053F82430DE
:100720009343124C08348D1044F8253023468C1026
:1007300053F824308C07240F00FA04F423430B4CA5
:1007400008348D1044F8253030BD0A4908607047E0
:1007500000080140000C014000100140001401405D
:1007600000180140001C0140002001400000014031
:1007700000002042DC002042DD48006840F001001B
:10078000DB49086008464068DA490840D8494860B3
:1007900008460068D8490840D549086008460068FE
:1007A00020F4802008600846406820F4FE0048607D
:1007B0004FF41F0088607047CD49096821F48031EB
:1007C000CB4A11601146096821F480211160B0F50F
:1007D000803F03D0B0F5802F0ED106E0C4490968F0
:1007E00041F48031C24A116007E0C149096841F40F
:1007F000A021BF4A116000E000BF00BF704710B5E4
:1008000001460022002300204A11012A02D1B84CDF
:10081000236806E0022A02D1B54C236A01E0B44CF9
:10082000636A01F01F02012494401C4201D00120A0
:1008300000E0002010BD38B5002000900024002505
:1008400000BF3120FFF7DBFF05460098401C0090F9
:100850000098B0F5A06F01D0002DF2D03120FFF745
:10086000CEFF08B1012400E00024204638BD014637
:1008700000209F4A106820F0F80040EAC100106094
:1008800070479E490860704702460020984B5868A0
:1008900020F47C1042EA01031843954B58607047DE
:1008A00096490866704701460020914A506820F03A
:1008B00003000843506070478D48406800F00C000A
:1008C0007047014600208A4A506820F0F000084333
:1008D0005060704701460020854A506820F4E0606F
:1008E00008435060704701460020814A506820F458
:1008F000605040EAC1005060704729B17C4A527A8A
:1009000002437B4B5A7204E0794A527A8243784B15
:100910005A7270477A490860704701460020744A4D
:10092000506820F440400843506070470021754AE9
:1009300011706F4A82F82010012802D0042808D1D3
:1009400003E001216F4A117004E005216D4A117026
:1009500000E000BF00BF70476B4908607047644902
:10096000096A0143624A1162704767494439086065
:10097000704730B500210022002400235C4D6D68D3
:1009800005F00C0121B1042905D0082923D105E087
:100990005E4D056022E05D4D05601FE0544D6D68C1
:1009A00005F47012524D6D6805F48034022505EB94
:1009B00092421CB9564D554305600BE04C4D6D6895
:1009C00015F4003F03D0524D5543056002E04F4DF2
:1009D0005543056002E04D4D056000BF00BF444D2A
:1009E0006D6805F0F00109094A4D6B5C0568DD4052
:1009F00045603F4D6D6805F4E061090A454D6B5C4B
:100A00004568DD4085603A4D6D6805F46051C90A5E
:100A1000404D6B5C4568DD40C560354D6D6805F443
:100A20004041890B3C4D6B5CC568B5FBF3F5056136
:100A300030BD29B12E4A526902432D4B5A6104E060
:100A40002B4A526982432A4B5A61704729B1284A7E
:100A500092690243264B9A6104E0254A92698243D7
:100A6000234B9A61704729B1214AD2690243204B36
:100A7000DA6104E01E4AD26982431D4BDA61704795
:100A800029B11B4AD2680243194BDA6004E0184AC4
:100A9000D2688243164BDA60704729B1144A126952
:100AA0000243134B1A6104E0114A12698243104B4E
:100AB0001A61704714494039086070470F49C8648B
:100AC00070470B49C87170470948406A40F0807010
:100AD00007494862704701460020054A92680A4269
:100AE00001D0012000E00020704701498872704762
:100AF000001002400000FFF8FFFFF6FE0000424237
:100B0000D8004242201002408004424200127A0083
:100B100000093D00140000202400002070477047A9
:100B20000EB50AF03BFC00F0FFF800F0C1FB02A894
:100B300006F09BFF00F096F9FFF7F1FFFFF7EEFFDD
:100B40000EE01948006880F001001749086002A80B
:100B500000210B460122CDE90010084609F04DFDA9
:100B6000EFE700B58BB00AA802F0A8FA0AA80321A3
:100B700000220592CDE906210890052080210C2253
:100B80000A4BCDE90132CDE9031002200023084AC7
:100B900008A100900B4807F0A2FB0AA802F071FD23
:100BA00000200BB000BD00000C0C0140E80100204B
:100BB000210B0008417070205461736B20537461E5
:100BC0007274000020010020704700BFFEE700BFE4
:100BD000FEE700BFFEE700BFFEE77047704700007A
:100BE00072B6704762B67047EFF3108072B6704706
:100BF00080F31088704730BF704720BF7047B0FA4D
:100C000080F0704790FAA0F0B0FA80F0704790FA48
:100C1000A0F0704710B5FD480088401EFB490880D1
:100C200008460088A0B90AF0F9FBF94908600846AF
:100C30000068F8490968441AF7480068A04201D2E0
:100C4000F5480460F5480068A04201D2F34804600A
:100C500010BD10B5F2480088401CF1490880EB48EF
:100C6000008818B90AF0DAFBEA490860E74800880A
:100C7000401CE649088010BD10B5002400BF00BF2D
:100C8000FFF7B2FF044600BFFFF7E3FF00BF1021EC
:100C9000E44800F059FB00BFFFF7BCFF00BF20464F
:100CA000FFF7A6FF00BF00BF10BD10B5FFF7E4FFC0
:100CB00010BD70B500260020D9490880D3490880AE
:100CC000D4490860D2490860D3490860D349086014
:100CD000D5490860002400BFFFF786FF064600BF25
:100CE00000250BE00020CC490860FFF7B2FFFFF7BA
:100CF00091FFC94800680444681C85B2002DF1D0FA
:100D0000C94804600020C4490860C449086000BFA5
:100D10003046FFF76DFF00BF70BD10B50020C3491E
:100D200008600AF065FB10BD10B5FFF7F6FFFFF78E
:100D3000C0FFFFF7BAFF10BD00BFFEE770B5054664
:100D40000C46002614B900BFFFF7F6FF15B90A20BC
:100D5000208070BD00BF00BFFFF746FF064600BF02
:100D6000FFF777FF00BF1022AE49284601F08EFB47
:100D700000BFFFF74FFF00BF3046FFF739FF00BF4E
:100D800000BF0020208000BFE3E72DE9F0410546C9
:100D90000C46002714B900BFFFF7CEFF1DB90A208B
:100DA0002080BDE8F0811021284601F057FB06465F
:100DB000102E19D200BF00BFFFF716FF074600BF75
:100DC000FFF747FF00BF10222946964801F05EFB5F
:100DD00000BFFFF71FFF00BF3846FFF709FF00BF46
:100DE00000BF0020208002E04FF47A70208000BF16
:100DF000D7E710B50AF012FB0446204610BD704735
:100E000000B5014611B900BFFFF796FF874A106889
:100E100008B1002201E04FF4FA620A8000BD834964
:100E200008607047014608467F4A1268904203D91D
:100E30007D4A1268801A00E00020704770B50025D6
:100E400000BFFFF7D1FE054600BF7348046800BF2E
:100E50002846FFF7CDFE00BF2046FFF7E3FF06461A
:100E6000304670BD70B50025FFF7E8FF044600BFAF
:100E7000FFF7BAFE054600BF00206749086000BFC3
:100E80002846FFF7B5FE00BF204670BD70B50025AF
:100E900000BFFFF7A9FE054600BF6048046800BF19
:100EA0002846FFF7A5FE00BF2046FFF7BBFF06461A
:100EB000304670BD70B505462846FFF7A0FE0446D3
:100EC000183C204670BD70B505462846FFF797FED2
:100ED0000446103C204670BD70B505462846FFF715
:100EE0008EFE044600BF204670BD30B502460B465C
:100EF0004FF0FF354FF00004AD1A9C4127D24FF060
:100F0000FF352C0CAD1A9C410FD24FF0FF352C0A47
:100F1000AD1A9C4103D2190E454C605C45E0190C9A
:100F2000434C645C04F108003FE04FF0FF35FF24C0
:100F3000AD1A9C4105D2190A3D4C645C04F11000C5
:100F400033E019463A4C645C04F118002DE04FF68A
:100F5000FF750024AD1A9C4115D26FF07F45002427
:100F6000AD1A9C4107D2140E44EA0321304C645C54
:100F700004F1200019E0140C44EA03412C4C645C99
:100F800004F1280011E0FF250024AD1A9C4107D28E
:100F9000140A44EA0361264C645C04F1300004E066
:100FA0001146234C645C04F1380030BD70B5044632
:100FB0000CB9082070BD2046FFF724FE05462846E0
:100FC000F8E770B504460CB9102070BD2046FFF755
:100FD00019FE05462846F8E770B504460CB92020EE
:100FE00070BD2046FFF70EFE05462846F8E72DE9BE
:100FF000F04304460D464FF0000184EA010085EA03
:101000000101084316D14020BDE8F0832E000020E6
:1010100034000020300000203C0000204000002070
:101020002C000020E80300203800002028000020C9
:101030002AB60008E243E843521C40F1000102EAEC
:10104000040601EA050730463946FFF74EFF8046A1
:10105000C8F13F094846D7E70146412903DB5A2931
:1010600001DC012200E00022012A08D0612903DB13
:101070007A2901DC012200E00022012A01D10122AB
:1010800000E00022104670470146412903DB5A293F
:1010900001DC012200E00022012A08D0612903DBE3
:1010A0007A2901DC012200E00022012A01D101227B
:1010B00000E00022012A08D0302903DB392901DCB5
:1010C000012200E00022012A01D1012200E00022D9
:1010D000104670470146612903DB7A2901DC0122B1
:1010E00000E00022104670470146412903DB5A29DF
:1010F00001DC012200E00022104670470146302941
:1011000003DB392901DC012200E000221046704790
:101110000146302903DB372901DC012200E00022EF
:10112000104670470146302901DB392907DD412986
:1011300001DB462903DD612903DB662901DC01228D
:1011400000E00022104670470146202901D00929FD
:1011500001D1012200E000221046704701462029FB
:1011600009D00D2907D00A2905D00C2903D0092957
:1011700001D00B2901D1012200E000221046704766
:101180000146202903DB7E2901DC012200E0002248
:10119000104670470146212903DB7E2901DC01222C
:1011A00000E00022104670470146202903DB7E291B
:1011B00001DC012200E00022012A35D1202909D0DA
:1011C0000D2907D00A2905D00C2903D0092901D0FF
:1011D0000B2901D1012200E000222ABB412903DBB7
:1011E0005A2901DC012200E00022012A08D06129ED
:1011F00003DB7A2901DC012200E00022012A01D16F
:10120000012200E00022012A08D0302903DB39291D
:1012100001DC012200E00022012A01D1012200E0CC
:1012200000220AB9012200E0002210467047014660
:101230004AB2002A01DB1F2901DD7F2901D10122E9
:1012400000E00022104670470146412903DB5A297D
:1012500001DC012200E00022012A02D101F120027A
:1012600000E00A46D0B270470146612903DB7A29C3
:1012700001DC012200E00022012A02D1A1F12002BA
:1012800000E00A46D0B27047F0B504460B4620464F
:10129000FFF7EAFF05461846FFF7E6FF0646B542A8
:1012A00001D1012000E0002007463846F0BD0000D3
:1012B000F748F84901600146416000218160C16042
:1012C000016141618161C16101620163C162416289
:1012D000F1498163C1634FF4D8410164416401461F
:1012E000EE4A116070472DE9F04103460C4617465F
:1012F0000FB9BDE8F08103B9FBE70025002202E049
:101300002D022543521C042AFAD3384603F0030C5D
:101310001946BCF1000F08D0624603E001F8014B0A
:10132000401E521C08B1042AF8D30E4601E020C624
:10133000001F0428FBD2314602E001F8014B401E99
:101340000028FAD100BFD4E730B505460C46224646
:1013500000212846FFF7C7FF30BD2DE9F04F85B0CB
:10136000074688469146B9F1000F02D105B0BDE8A5
:10137000F08F07B9FAE7B8F1000F00D1F6E746465B
:101380003D46AE4205D94A464146384600F056FF32
:10139000ECE74C463819451E08EB0400461EA81B16
:1013A00004900498042834D305F00300029006F05A
:1013B00003010191DDE90110884201D1012000E023
:1013C000002000900098012823D10298032810D013
:1013D000029840B2039008E016F8010905F80109E7
:1013E000641E0398401E40B2039014B10398002875
:1013F000F2DAA5F1030AA6F1030B04E05BF8040995
:101400004AF80409241F042CF8D20AF103050BF151
:10141000030604E016F8010905F80109641E002C12
:10142000F8D100BFA2E72DE9F84F8046894615465E
:1014300015B90120BDE8F88FB8F1000F01D10020E7
:10144000F8E7B9F1000F01D10020F3E701242946A4
:1014500008EB050209EB050302F0030C03F0030B94
:10146000DC4501D1012000E0002000900098012817
:1014700029D1BCF1000F12D0E2460AE0521E5B1ED9
:10148000107893F800E0704500D00024491EAAF1BE
:10149000010A012C03D111B1BAF1000FEED1012CD8
:1014A00011D116461F4608E0361F3F1F3068D7F897
:1014B00000E0704500D00024091F012C01D104294F
:1014C000F2D232463B4608E0521E5B1E107893F87B
:1014D00000E0704500D00024491E012C01D10029F4
:1014E000F2D12046A6E7F0B503460D461646DA6B64
:1014F000B2FBF6F006FB102CBCF1000F02D0A6EBFD
:101500000C0400E000246119586C884201D20020CC
:10151000F0BDA14201D3A94201D20020F8E757183B
:10152000974201D20020F3E72244DF63586C401A4F
:1015300058641046ECE72DE9F04F81468C461C4676
:10154000B9FBF4F004FB109BBBF1000F02D0A4EB3D
:101550000B0600E00026B2FBF4F004FB102BBBF1FD
:10156000000F02D0A4EB0B0300E00023D018ACF175
:10157000010E00FB0E60871806EB0208B04501D390
:10158000904502D20020BDE8F08FBCF1010F22D9B6
:10159000D5189D4201D3954201D20020F3E7ACF16A
:1015A000010000FB05F1A94203D3994201D3914206
:1015B00001D20020E7E701EB020A8A4501D39245F8
:1015C00001D20020DFE7474503D38F4201D35745BF
:1015D00001D20020D7E73846D5E72DE9FE4F074670
:1015E000884615461C46002000901CB900BFFFF736
:1015F000A3FB00BF0DB901AD00BF002028602FB9CB
:1016000042F2747020800020BDE8FE8FB8F1000F18
:1016100004D142F2757020800020F5E7DFF8709069
:1016200000BF00BFFFF7E0FA009000BFFFF711FB1B
:1016300000BFD9F83C000290D9F844B043463A467E
:1016400001210298FFF777FF064676B900BFFFF742
:10165000E1FA00BF0098FFF7CBFA00BF00BF2F6090
:1016600042F2E37020800020CEE75E4518D900BF2B
:10167000FFF7D0FA00BF0098FFF7BAFA00BF00BF2B
:10168000A6EB0B00286042F2E27020800020BBE74E
:10169000F803002048454150400400204400002049
:1016A000424639464846FFF71EFF8246BAF1000F10
:1016B0000ED100BFFFF7AEFA00BF0098FFF798FA0F
:1016C00000BF00BF2E6042F2E270208000209BE746
:1016D00000BFFFF79FFA00BF0098FFF789FA00BF2D
:1016E00000BF42F21070208050468DE72DE9FC5F6C
:1016F00006460D461446002000901CB900BFFFF7B7
:101700001BFB00BF2DB942F2757020800020BDE8A0
:10171000FC9FB5F5805F04D942F2757020800020EF
:10172000F5E726B942F2117020800020EFE700BFF4
:1017300000BFFFF759FA009000BFFFF78AFA00BF19
:10174000FC493068401808D0FB49401803D0FB49D9
:10175000401801D100BF0EE000BF00BFFFF75AFAEA
:1017600000BF0098FFF744FA00BF00BF42F2887044
:1017700020800020CBE700BFD6F80490D9F83800CD
:1017800008B1484600E0EE488246DAF84470DAF8DC
:101790003CB000BFFFF73EFA00BF0098FFF728FA01
:1017A00000BF00BF012D0DD9BBFBF5F005FB10B844
:1017B000B8F1000F02D0A5EB080000E00020019076
:1017C00001983F1A42F21070208038469FE770B5AA
:1017D00004460D462A462146D948FFF787FF0646AC
:1017E000304670BD70B504460D461DB900BFFFF709
:1017F000A3FA00BF1CB942F21170288070BDCD4819
:101800004042206000206060A060E0602061606174
:10181000A061E0612062A06260632063E0626062B8
:10182000A063E0632064606442F21070288000BF0F
:10183000E4E72DE9FF4F91B00446DDE92095002053
:1018400000901DB900BFFFF777FA00BFB9F1000F94
:1018500002D10DF1100900BF0020C9F8000029468F
:101860002046FFF7BFFF2888A0F51C51103902D091
:1018700015B0BDE8F08F129828B1139818B942F24C
:101880007E702880F4E7149818B942F2927028808C
:10189000EEE71E9818B942F293702880E8E71F9887
:1018A00018B942F294702880E2E7A648006818B997
:1018B00042F2E7702880DBE7A14810904FF0000A61
:1018C00000BF00BFFFF790F9009000BFFFF7C1F91C
:1018D00000BF1298002863D1109E109E0E96109E95
:1018E0003746109EF06B0B9004231A4614990B9800
:1018F000FFF721FE0390039860B900BFFFF78AF954
:1019000000BF0098FFF774F900BF00BF42F2E37018
:101910002880ADE703990B9808440A90DDE91E235F
:1019200014990A98FFF707FE8346BBF1000F0CD10C
:1019300000BFFFF76FF900BF0098FFF759F900BF2C
:1019400000BF42F2E370288092E7039800EB0B0A95
:101950000398824501D3DA450CD200BFFFF75AF94C
:1019600000BF0098FFF744F900BF00BF42F2E370E8
:1019700028807DE71098D0F84480C2457ED900BF0A
:10198000FFF748F900BF0098FFF732F900BF00BF2A
:10199000AAEB0800C9F8000042F2E270288067E76D
:1019A00012980990DDE912010844401E0890DDE913
:1019B000081081420CD200BFFFF72CF900BF00983D
:1019C000FFF716F900BF00BF42F2977028804FE77B
:1019D000002600200E905B4807683CE0B96B129827
:1019E000814205D1396C1398814201D13E4634E0E1
:1019F000B86B0790396CB86B0844401E0690DDE95F
:101A00000701814200D228E007990998884203D84B
:101A1000DDE9071088420FD207990998884203D35D
:101A200006990898884207D906990998884210D8DB
:101A30000699089888420CD300BFFFF7EBF800BF67
:101A40000098FFF7D5F800BF00BF42F27F702880F2
:101A50000EE70E97FF68002FC0D100BF46B926469B
:101A60001298A0631298E06313982064139860643E
:101A70001098C06B0B9004231A4600E064E01499A0
:101A80000B98FFF758FD0390039860B900BFFFF76C
:101A9000C1F800BF0098FFF7ABF800BF00BF42F2EB
:101AA000E3702880E4E61098D0F84480039840451D
:101AB00011D900BFFFF7AEF800BF0098FFF798F804
:101AC00000BF00BF0398A0EB0800C9F8000042F275
:101AD000E2702880CCE6F06B0A90DDE91E231499B1
:101AE0000A98FFF728FD8346BBF1000F0CD100BF19
:101AF000FFF790F800BF0098FFF77AF800BF00BF2B
:101B000042F2D9702880B3E6D6F84480C3451BD989
:101B100000BFFFF77FF800BF0098FFF769F800BF2C
:101B200000BFABEB0800C9F8000042F2D870288073
:101B30009EE60000B2B0B1BAFEFFFEF8080A0EFC45
:101B4000F803002044000020149880000290042232
:101B500002991098FFF7C7FC0D900D9838BB1098AC
:101B6000D0F8448000BFFFF755F800BF0098FFF79A
:101B70003FF800BF00BF129848B9C24504D9AAEB8C
:101B80000800C9F800000EE0C9F800A00BE00298B8
:101B9000404505D90298A0EB0800C9F8000002E012
:101BA0000298C9F8000042F2E270288060E6002046
:101BB000019034E03046DDE91E12FFF794FC0C90F2
:101BC0000C9820BBF06B0A90D6F8448000BFFFF75A
:101BD00021F800BF0098FFF70BF800BF00BF019984
:101BE0001498401A0590DDE91E2305990A98FFF71D
:101BF000A2FC8246C24504D9AAEB0800C9F800003D
:101C000001E0C9F800A042F2D870288030E6019ABD
:101C1000DDE90C0141F822000198401C0190149963
:101C200001988842C6D3A6420CD10E98A060E76006
:101C30000E9810B10E98C46001E0FB4804605FB1DB
:101C4000BC6009E070690F9026610F986061746153
:101C50000F9808B10F980461F448206066600A98F4
:101C6000A0610A985844401EE0610D982062C4F8B3
:101C700028B01F9860631E9820631498E06214983F
:101C8000606200BFFEF7C6FF00BF0098FEF7B0FF1E
:101C900000BF00BF42F21070288000BFE8E52DE9C8
:101CA000F04105460C4600271CB900BFFFF744F879
:101CB00000BF2DB942F2117020800020BDE8F081F4
:101CC00000BF00BFFEF790FF074600BFFEF7C1FF51
:101CD00000BFD7492868401808D0D649401803D01B
:101CE000D549401801D102E00FE000BF00BF00BF9E
:101CF000FEF790FF00BF3846FEF77AFF00BF00BF37
:101D000042F2887020800020D8E700BF6E6A00BFD2
:101D1000FEF780FF00BF3846FEF76AFF00BF00BF36
:101D200042F2107020803046C8E72DE9F0410446A9
:101D30000E4615464FF000081DB900BFFEF7FCFF28
:101D400000BF2CB942F2117028800020BDE8F0815C
:101D500026B942F2937028800020F7E700BF00BF49
:101D6000FEF742FF804600BFFEF773FF00BFAF499A
:101D7000206888420DD000BFFEF74CFF00BF4046F0
:101D8000FEF736FF00BF00BF42F2887028800020B7
:101D9000DCE7206BB0420DD200BFFEF73BFF00BF77
:101DA0004046FEF725FF00BF00BF42F29370288037
:101DB0000020CBE7606A68B900BFFEF72BFF00BFC9
:101DC0004046FEF715FF00BF00BF42F2DE702880DC
:101DD0000020BBE7E16A606A88420DD900BFFEF7C8
:101DE00019FF00BF4046FEF703FF00BF00BF42F2ED
:101DF000957028800020A9E7606A401E6062D4E9DF
:101E0000080150F8217000BFFEF704FF00BF4046F4
:101E1000FEF7EEFE00BF00BF42F210702880384689
:101E200094E72DE9F04704460F4615464FF00009A8
:101E30001DB900BFFEF780FF00BF2CB942F2117040
:101E400028800020BDE8F08700BF00BFFEF7CCFE71
:101E5000814600BFFEF7FDFE00BF7449206888423E
:101E60000DD000BFFEF7D6FE00BF4846FEF7C0FE0D
:101E700000BF00BF42F2887028800020E2E7E16ADC
:101E8000606A88420DD300BFFEF7C4FE00BF48461B
:101E9000FEF7AEFE00BF00BF42F295702880002022
:101EA000D0E7E06AC01B461EE06AB0420DD800BF12
:101EB000FEF7B0FE00BF4846FEF79AFE00BF00BF27
:101EC00042F2957028800020BCE7606AB0420DD9CC
:101ED00000BFFEF79FFE00BF4846FEF789FE00BF29
:101EE00000BF42F2957028800020ABE7206A50F8CE
:101EF000268000BFFEF78EFE00BF4846FEF778FE44
:101F000000BF00BF42F21070288040469AE72DE9DA
:101F1000F04F02460C469569D2F81CB0AC4201D392
:101F20005C4502D90020BDE8F08F536BB5FBF3F0A0
:101F300003FB105111B1A3EB010C01E04FF0000CB9
:101F4000176BB7FBF3F003FB107109B15E1A00E0E9
:101F5000002605EB0C08A4EB080A07EB0609BAFB00
:101F6000F9F009FB10A008B9012000E00020864626
:101F70007046D8E72DE9F04704460F4615464FF066
:101F8000000A1DB900BFFEF7D7FE00BF24B942F218
:101F900011702880BDE8F0871FB942F211702880C7
:101FA000F8E700BF00BFFEF71FFE824600BFFEF746
:101FB00050FE00BF1D49206888420CD000BFFEF7CC
:101FC00029FE00BF5046FEF713FE00BF00BF42F2DD
:101FD00088702880DEE739462046FFF798FF804664
:101FE000B8F1010F0CD000BFFEF714FE00BF504641
:101FF000FEF7FEFD00BF00BF42F297702880C9E7E0
:1020000000261CE0206A50F82600B84216D100BF16
:10201000FEF700FE00BF5046FEF7EAFD00BF00BF1E
:1020200042F298702880B5E744000020504F4F4C92
:10203000B2B0B1BAFEFFFEF8080A0EFC761C606A68
:10204000B042DFD8E16A606A88420CD300BFFEF775
:10205000E1FD00BF5046FEF7CBFD00BF00BF42F2DE
:10206000DD70288096E74FF00008666A08E0206A75
:1020700050F82690B94502D14FF0010803E0761CD4
:10208000E06AB042F3D800BFB8F1010F07D1D4E93C
:10209000080150F82100216A41F826000CE000BF39
:1020A000FEF7B8FD00BF5046FEF7A2FD00BF00BF1F
:1020B00042F2887028806DE7D4E9080140F8217069
:1020C000606A401C606200BFFEF7A4FD00BF50467E
:1020D000FEF78EFD00BF00BF42F21070288000BFE7
:1020E00058E72DE9F84F04460F46154600200090AA
:1020F0004FF0FF3B1DB900BFFEF71EFE00BF2CB91D
:1021000042F2117028805846BDE8F88F27B942F294
:10211000117028805846F7E700BF00BFFEF764FD46
:10212000009000BFFEF795FD00BF4349206888423C
:102130000DD000BFFEF76EFD00BF0098FEF758FD02
:1021400000BF00BF42F2887028805846DCE739465D
:102150002046FFF7DCFE8046B8F1010F0DD000BF2E
:10216000FEF758FD00BF0098FEF742FD00BF00BF1C
:1021700042F2977028805846C6E7002613E0206A8E
:1021800050F82600B8420DD100BFFEF743FD00BF56
:102190000098FEF72DFD00BF00BF42F29870288026
:1021A0005846B1E7761C606AB042E8D8E16A606AD6
:1021B00088420DD300BFFEF72DFD00BF0098FEF74B
:1021C00017FD00BF00BF42F2DD70288058469BE734
:1021D0004FF00008666A08E0206A50F82690B9457A
:1021E00002D14FF0010803E0761CE06AB042F3D858
:1021F00000BFB8F1010F11D1E06A401EA0EB060A42
:1022000000BFFEF707FD00BF0098FEF7F1FC00BF1E
:1022100000BF42F210702880504675E700BFFEF7FD
:10222000F9FC00BF0098FEF7E3FC00BF00BF42F2DC
:1022300088702880584667E7504F4F4C002800D1DF
:102240007047002900D17047002A00D170472DE95E
:10225000F81F00F0030301F00304A34211D1C3F1FE
:10226000040303F00303012B1DD3012A00D2F2E083
:1022700011F8014B00F8014BA3F10103A2F1010297
:10228000F1E700F0010301F00104A34200D094E063
:10229000012B44D311F8014B00F8014BA3F10103CA
:1022A000A2F10102F4E7B2F5B47F26D3B1E8F81F3A
:1022B000A0E8F81FB1E8F81FA0E8F81FB1E8F81F80
:1022C000A0E8F81FB1E8F81FA0E8F81FB1E8F81F70
:1022D000A0E8F81FB1E8F81FA0E8F81FB1E8F81F60
:1022E000A0E8F81FB1E8F81FA0E8F81FB1E8F81F50
:1022F000A0E8F81FA2F5B472D5E7282A06D3B1E802
:10230000F81FA0E8F81FA2F12802F6E7042A06D376
:1023100051F8043B40F8043BA2F10402F6E7202AFE
:1023200042D331F8023B20F8023B31F8023B20F85F
:10233000023B31F8023B20F8023B31F8023B20F827
:10234000023B31F8023B20F8023B31F8023B20F817
:10235000023B31F8023B20F8023B31F8023B20F807
:10236000023B31F8023B20F8023B31F8023B20F8F7
:10237000023B31F8023B20F8023B31F8023B20F8E7
:10238000023B31F8023B20F8023B31F8023B20F8D7
:10239000023B31F8023B20F8023B31F8023B20F8C7
:1023A000023BA2F12002BAE7022A06D331F8023B2F
:1023B00020F8023BA2F10202F6E7102A42D311F8FC
:1023C000013B00F8013B11F8013B00F8013B11F81B
:1023D000013B00F8013B11F8013B00F8013B11F80B
:1023E000013B00F8013B11F8013B00F8013B11F8FB
:1023F000013B00F8013B11F8013B00F8013B11F8EB
:10240000013B00F8013B11F8013B00F8013B11F8DA
:10241000013B00F8013B11F8013B00F8013B11F8CA
:10242000013B00F8013B11F8013B00F8013B11F8BA
:10243000013B00F8013B11F8013B00F8013BA2F120
:102440001002BAE7012A06D311F8013B00F8013B5C
:10245000A2F10102F6E7BDE8F81F704710B5024689
:102460000B461146002001E0491C401C19B10C78B4
:102470000CB19842F8D310BD30B504464FF0FF318F
:102480002046FFF7EBFF0546284630BD70B50446F1
:102490000D4616460CB9002070BD0DB90020FBE7B3
:1024A00021462A46002304E010780870491C521C7B
:1024B0005B1C21B11AB1107808B1B342F4D301B159
:1024C0000AB90020E8E7B34201D200200870204694
:1024D000E2E770B504460D464FF0FF32294620462C
:1024E000FFF7D4FF0646304670BD70B503460C4674
:1024F00015460BB9002070BD0CB90020FBE70DB9E3
:102500001846F8E7194600E0491C11B10878002880
:10251000FAD109B90020EEE72246002604E010783F
:102520000870491C521C761C21B11AB1107808B1F0
:10253000AE42F4D301B10AB90020DCE700200870F4
:102540001846D8E770B504460D464FF0FF322946CD
:102550002046FFF7CAFF0646304670BD2DE9F0431E
:1025600005460B469446BCF1000F02D10020BDE8A1
:10257000F08335B90BB90020F9E7187842421046CC
:10258000F5E713B92A781046F1E729461C460F46AD
:1025900026467F1C761C4FF0000805E0491C641C91
:1025A0007F1C761C08F10108087894F800904845D3
:1025B00005D1087818B117B10EB1E045EED3E0456A
:1025C00001D10020D3E7087894F80090484505D061
:1025D000087894F80090A0EB09020BE0087808B99D
:1025E000002207E02FB90EB9002203E03078424202
:1025F00000E03A781046BAE770B504460D464FF051
:10260000FF3229462046FFF7A9FF0646304670BD37
:102610002DE9F74F82B080460E46049818B9002085
:1026200005B0BDE8F08FB8F1000F09D10EB9002058
:10263000F6E73078FEF708FE07467C422046EFE7D3
:102640003EB998F80000FEF7FFFD05462C462046EF
:10265000E6E7C146B246C846C3465646CDF804A092
:10266000D8460BF1010B019E701C0190C84699F8E9
:102670000000FEF7E9FD054656469AF80000FEF711
:10268000E3FD07460020009015E009F101090AF179
:10269000010A0BF1010B0198401C01900098401CAD
:1026A000009099F80000FEF7CFFD05469AF800006B
:1026B000FEF7CAFD0746BD420BD199F8000040B1B4
:1026C000BBF1000F05D0019818B104990098884219
:1026D000DBD304990098884201D10020A0E7BD42D5
:1026E00001D0EC1B16E00DB9002413E0BBF1000F84
:1026F0000AD1019808B900240CE001990878FEF786
:10270000A3FD07467C4205E09BF80000FEF79CFD18
:1027100005462C46204683E770B504460D464FF02B
:10272000FF3229462046FFF773FF0646304670BD4C
:1027300030B504460B4615460CB9002030BD0BB928
:102740000020FBE72146002201E0491C521C31B168
:10275000087820B10878A84201D09A42F5D309B987
:102760000020EBE79A4201D30020E7E70878A8426F
:1027700001D00020E2E70846E0E770B505460C46C8
:1027800022464FF0FF312846FFF7D2FF064630467B
:1027900070BD2DE9F04305460E46174615B90020D9
:1027A000BDE8F0830EB90020FAE72C46A6F1010936
:1027B00049462046FFF752FE804644440CB90020AB
:1027C000EEE700E0641EAC4202D02078B842F9D1B6
:1027D0002078B84201D00020E2E72046E0E770B55B
:1027E00005460C4622464FF0FF312846FFF7D1FF41
:1027F0000646304670BD70B504460D4616460CB907
:10280000002070BD0BB90020FBE721461A4605E009
:102810000878A84200D10E70491C521E19B10878E0
:1028200008B1002AF4D12046EBE7F0B504460D4686
:1028300016464FF0FF33324629462046FFF7DBFFAE
:1028400007463846F0BD2DE9FF4F06460F461546B0
:102850001EB9002004B0BDE8F08F0FB90020F9E7E1
:102860000DB90020F6E7681C00D001E04FF0FF3002
:10287000039029463046FFF7F1FD8046384603991C
:10288000FFF7ECFD04460CB93046E3E7444501D9B7
:102890000020DFE706EB080BBBF1000F01D10020A1
:1028A000D8E707EB040BBBF1000F01D10020D1E703
:1028B000A8EB040002904FF000090020019000BF37
:1028C00006EB09000090224639460098FFF746FEC5
:1028D0008246BAF1000F01D1012000E000200190F2
:1028E00009F10109019810B902988145E8D9BAF1B6
:1028F000000F01D00020ADE70098ABE770B50446AB
:102900000D464FF0FF3229462046FFF79CFF064652
:10291000304670BD2DE9FF4F8DB00F4615461A9E0B
:102920001D9818B9002011B0BDE8F08F0020039069
:10293000012F01DA01200390022D01D3242D01D9AA
:102940000120039096B33046FEF71AFC02900298DD
:10295000012802D00120039028E0302E26D0A6F1D5
:102960003000C0B207901B98012804D0A6F14100A6
:10297000C0B2069003E0A6F16100C0B206900A2D35
:1029800002D80798A84209DB0A2D09D907980A2816
:1029900004D3A5F10A000699884201D9012000E07C
:1029A000002005900598012800D103901D9C0398F4
:1029B000002846D1DDF834A0DDF834A0CDF830A0F1
:1029C00001200B9007E00B98401CC0B20B900C98B4
:1029D000B0FBF5F00C900C98A842F4D210980128A6
:1029E00000D100E0002009900B9909980844B842F2
:1029F00025DC002001900B98B84201DA0B9800E02A
:102A000038460A903EB1B8460A98391A0998081A09
:102A1000C0B2089006E0DDE90910084400F0FF08A4
:102A2000002008900898002806DD302E01D10120F2
:102A300000E00020049004E00020049001E0012068
:102A40000390039800B1B84644441C9808B1002094
:102A50002070641E4FF0000941E00398A8BBBAF152
:102A6000000F02D1B9F1000F1CD1BAFBF5F005FB44
:102A700010A000F0FF0BBBF10A0F04D20BF13000E5
:102A800004F801090BE01B98012804D00BF1370072
:102A900004F8010903E00BF1570004F80109BAFB3F
:102AA000F5FA1AE01098012810D1049808B9019895
:102AB00028B1049850B1A8F10100484506D12D2055
:102AC00004F801090120019007E003E02EB104F8A9
:102AD000016902E03F2004F8010909F10109C1453B
:102AE000BBD3039808B100201DE71D981BE72DE913
:102AF000FF5F05460E4617461C46DDE90F9ADDF8D6
:102B0000388000233A46314628468DE81007FFF703
:102B100001FF8346584604B0BDE8F09F2DE9FF4F02
:102B200085B0044689461F46DDE913AB002C02DA66
:102B30006542012601E02546002612983346CDE97C
:102B400002ABCDE9007049462846079AFFF7E2FE3E
:102B50008046404609B0BDE8F08F2DE9FF4F8BB0AD
:102B6000064689461546B9F1000F02D10DF1240938
:102B700000BFC9F80060189810B907A8189000BFE6
:102B80000021189801701EB900200FB0BDE8F08F29
:102B9000012D01D0242D01D90020F6E734462078FC
:102BA000FEF7DCFA039004E0641C2078FEF7D6FA06
:102BB000039003980128F7D020782B2802D02D28E5
:102BC0000BD103E0641C4FF0000B09E00E980128C4
:102BD00000D1641C4FF0010B02E04FF0000B00BF6E
:102BE00000BF0A9425B1082D1CD0102D36D11EE04F
:102BF0002078302814D1641C2078582802D07828F6
:102C00000BD100BF102567783846FEF78BFA824655
:102C1000BAF1010F00D1641C01E0082500BF00E0FB
:102C20000A251CE02078302800D1641C17E02078A9
:102C3000302812D1641C2078582802D078280AD174
:102C400000BF67783846FEF76DFA8246BAF1010F89
:102C500000D1641C00E000BF00BF00E000BF00BF67
:102C60004FF0000800200290019040E0277838469D
:102C7000FEF70AFA05900598012836D13846FEF786
:102C80003DFA06900698012804D1A7F13000C0B2A1
:102C900008900FE03846FEF71DFA049004980128CA
:102CA00004D1A7F15700C0B2089003E0A7F13700A4
:102CB000C0B208900898A84214DA029880B9304847
:102CC00050F82500404509D308FB05F808988044D2
:102CD0000898804504D20120029001E00120029072
:102CE000641C04E00120019001E0012001900198A2
:102CF0000028BBD00298012801D14FF0FF380A9874
:102D0000844202D0C9F8004001E0C9F80060189878
:102D100080F800B0404638E7F8B504460D46164640
:102D2000002003463246294600902046FFF715FF53
:102D300007463846F8BD2DE9FC4105460E461746C4
:102D400001A801233A46314600902846FFF705FFC7
:102D500004469DF8040040B9B4F1004F02D36FF06F
:102D6000004000E02046804607E0B4F1004F02D367
:102D70004FF0004000E0604280464046BDE8FC81E4
:102D80002CB7000810B59248006810B19048006850
:102D9000804710BD8F4A1168002002E0002204C164
:102DA000401C8D4A12689042F8D38A4A12688A4BB6
:102DB0001B6802EB8302121F884B1A60704710B524
:102DC0008748006810B186480068804710BD10B57C
:102DD00004468448006818B120468249096888473B
:102DE00010BD10B504468048006818B120467E49E1
:102DF0000968884710BD10B504467C48006818B1C2
:102E000020467A490968884710BDF0B50446DDE9D7
:102E1000055602EB85004FF0807C071F3846C7F847
:102E200000C0071F38463C60DFF8C4C1071F3846A2
:102E3000C7F800C04FF0123C071F3846C7F800C063
:102E40004FF0033C071F3846C7F800C04FF0023C64
:102E5000071F3846C7F800C0071F38463B60071FEA
:102E6000384639604FF0113C071F3846C7F800C09C
:102E70004FF0103C071F3846C7F800C04FF0093C20
:102E8000071F3846C7F800C04FF0083C071F3846F8
:102E9000C7F800C04FF0073C071F3846C7F800C00E
:102EA0004FF0063C071F3846C7F800C04FF0053CFE
:102EB000071F3846C7F800C04FF0043C071F3846CC
:102EC000C7F800C0F0BD70B54A48006810B1494865
:102ED0000068804708F0A2FA04464748006847495E
:102EE0000968884215D044480068D0F89800201A34
:102EF00041490968C1F894003F480068D0F89C0037
:102F00003D490968D1F8941008443B490968C1F863
:102F10009C003A480068C0F89840FDF7A3FF0546BA
:102F200035480068D0F8B400A84203D2324800689F
:102F3000C0F8B45030480068D0F8B800304909688B
:102F4000884205D22E4800682B490968C1F8B800AC
:102F500000202B49086070BD10B52A48006810B1E8
:102F600028480068804710BD10B5002400BF00BF8E
:102F7000FDF73AFE044600BFFDF76BFE00BF224896
:102F80000078401C2049087000BFFDF743FE00BFD9
:102F90002046FDF72DFE00BF00BF07F08EFD00F0BC
:102FA00034F910BD01464A1E4FF0E0235A61174A1A
:102FB000106820F07F4000BF10601A46126942F08E
:102FC00005021A611A46126942F002021A6170473C
:102FD0005C000020ECB70008F0B7000848000020B3
:102FE0006000002050000020540000205800002005
:102FF0004F9F000864000020180100201C010020E1
:10300000BC000020680000207000002020ED00E0DF
:1030100070470000002400BF1DE000BF00BFFDF7A7
:10302000E3FD044600BFFDF714FE00BFFA48006848
:10303000401CF9490860F9480068401CF7490860DD
:1030400000BFFDF7E7FD00BF2046FDF7D1FD00BF43
:1030500000BFFFF797FEE0E710B58AB004460020F6
:10306000ED4908600B2000210591CDE90704069188
:103070000846EB490968EB4A1268EB4B1B68CDE93F
:103080000132CDE903101F200023AFF27702E7A140
:103090000090EB4805F023F90AB010BD00210AE0CA
:1030A00001EB4102E74B03EB820000220281026048
:1030B00042604A1CD1B22029F2D3704770B5044651
:1030C000FFF768FE0020E0490870E0490870E04919
:1030D0000870E0490860E0490860E0490870E0498C
:1030E0000870E0490870E0490860E0490860E0497C
:1030F0000860E0490870E04800680A21B0FBF1F080
:10310000DE490860DE48006858B1DE48056845B110
:10311000DB48066803E0761E002028602D1D002E87
:10312000F9D10020D8490860D8490860D84908601A
:10313000D8490860D8490860D8490860D84908606B
:10314000D849087003F01AFAFFF7A8FF204601F0EB
:1031500068FF208800B170BD204602F0CBFA2088BD
:1031600000B1F8E7204602F0D7FA208800B1F2E774
:10317000204603F0EBF9208800B1ECE7204603F08D
:1031800025FF208800B1E6E7204604F0BDFB20883B
:1031900000B1E0E7204606F0D1FE208800B1DAE772
:1031A000204602F0CCF8208800B1D4E72046FFF793
:1031B00053FF208800B1CEE7204607F02EF8208884
:1031C00000B1C8E7204604F0AEFE208800B1C2E797
:1031D000204608F024F8208800B1BCE700F052FE39
:1031E000FFF716FF00BFB6E798480078012800D027
:1031F000704795480078FA2800DBF9E79248007894
:10320000401C9149087000BFF2E710B500248F48B8
:103210000078012800D010BD00BFFDF7E5FC044692
:1032200000BF8948007828B900BF2046FDF7E0FCC0
:1032300000BFF0E784480078401E834908700846C4
:103240000078002805DD00BF2046FDF7D1FC00BF57
:10325000E1E77F480078002805DD00BF2046FDF744
:10326000C7FC00BFD7E703F093F97D490870084613
:10327000007800EB4000734951F82000764908605F
:103280000846006873490968884205D100BF204696
:10329000FDF7AEFC00BFBEE76F480068D0F89000B5
:1032A000401C6D490968C1F890007F480068401CC7
:1032B0007D4908604FF080507C49086000BF20467F
:1032C000FDF796FC00BF00BFA5E710B500245E48DF
:1032D0000078002800DD10BD5D480078002800DD82
:1032E000F9E700BFFDF780FC044600BF03F050F98A
:1032F0005B4908700846007800EB4000514951F8DE
:10330000200055490860084600685249096888420B
:1033100005D100BF2046FDF76BFC00BFDBE74E4840
:103320000068D0F89000401C4B490968C1F8900033
:103330005D480068401C5C4908604FF080505B4964
:10334000086000BF2046FDF753FC00BF00BFC2E786
:1033500010B53F480078012803D108F05FF84249D2
:10336000086010BD70B50446002537480078002875
:1033700003DD46F66250208070BD34480078012895
:1033800003D045F689602080F6E731480078FA28B6
:1033900003DB45F209202080EEE700BF00BFFDF708
:1033A00023FC054600BFFDF754FC00BF2848007809
:1033B000401C27490870FFF7CBFF00BFFDF72AFC30
:1033C00000BF2846FDF714FC00BF00BF002020808E
:1033D00000BFD1E710B51E48007880B908F01EF88C
:1033E00021490968441A21480068A04201D21F48B7
:1033F00004601F480068A04201D21D48046010BD4F
:1034000070B50446002510480078002850DD46F6C7
:103410006550208070BD00006C000020D8000020A6
:10342000C8B70008C4B70008C0B7000875432F4FDD
:10343000532D4949492049646C65205461736B00E0
:10344000D08400206C8600207000002078000020CE
:10345000C0000020180100201C010020A600002050
:10346000A7000020A8000020B4000020B800002021
:10347000BC000020C800002020B80008C4000020C4
:10348000F0B70008ECB700085000002054000020FE
:10349000580000205C000020600000206400002034
:1034A00068000020F6000020EC00002004ED00E0A1
:1034B000FA480078012803D045F68960208070BD65
:1034C000F748007818B946F664502080F7E700BF47
:1034D00000BFFDF789FB054600BFFDF7BAFB00BF43
:1034E000EF480078401EEE49087008460078002832
:1034F0000CDD00BFFDF78EFB00BF2846FDF778FB13
:1035000000BF00BF46F663502080D8E7FFF762FF98
:1035100000BFFDF77FFB00BF2846FDF769FB00BF3A
:1035200000BFFFF7D2FE0020208000BFC7E72DE9D3
:10353000F04105460C461646002700BF00BFFDF7C8
:1035400053FB074600BFFDF784FB00BF012D03D0EE
:103550000020D449087002E00120D249087014B15B
:10356000D148046006E0D14800680A21B0FBF1F0C0
:10357000CD49086000BFFDF74DFB00BF3846FDF7A1
:1035800037FB00BF00BF00203080BDE8F08110B5E0
:1035900001460C8924B1012C03D0022C0CD101E08E
:1035A00000BF14E008684A6802610024C460146126
:1035B000D0600A6048600AE008684A68C36800246E
:1035C0001C61C4600261D0600B60486000BF00BF36
:1035D00010BD2DE9F04104460027B54800780028C9
:1035E00004DD48F2D1402080BDE8F081AC4800788D
:1035F000002803DD46F663502080F5E7A9480078EF
:10360000012803D046F67B102080EDE700BF00BF05
:10361000FDF7EAFA074600BFFDF71BFB00BFA54810
:10362000007800EB4000A44901EB800630890228B5
:103630000CDA00BFFDF7EEFA00BF3846FDF7D8FA06
:1036400000BF00BF46F67A102080CDE73046FFF776
:103650009EFF3568686D18B993480068A86501E059
:10366000686DA86500BFFDF7D5FA00BF3846FDF7C5
:10367000BFFA00BF00BFFFF728FE0020208000BF78
:10368000B2E710B5044685480078E8B902F080FF3B
:103690008A4908700846007886490870874800788B
:1036A00000EB4000844951F8200085490860084635
:1036B00000688449086001207849087007F064FFB9
:1036C00043F69920208002E045F68A60208010BDF4
:1036D00001460020088047F25D60704730B548B170
:1036E0004568C1F8C45000F10804226893681D6A57
:1036F000C56113E091F83450022D02D0072D08D196
:1037000003E071A5C1F8C45007E071A5C1F8C45029
:1037100003E072A5C1F8C45000BF00BF30BDF0B5D2
:103720008E6896F8375007893FB90127078100272F
:103730004F600F600160416023E007897F1C0781B3
:10374000026806E0946894F83770AF4200DD02E04A
:103750005268002AF6D100BF32B900274F60436893
:103760000B60596041600CE017682FB911600027A9
:103770000F604A60016004E013680B604A605960A2
:103780001160F0BD10B5C287016300230AE0002478
:103790004C600C600C614C610C83CC618860203102
:1037A0005C1CA3B29342F2DB10BD2DE9F04105464B
:1037B00095F8370000EB40003F4901EB80042F698A
:1037C000EE6887B946B9002020812060606095F8D6
:1037D000370002F0FFFE0EE02089401E208100200D
:1037E0003061266007E02089401E2081FE600EB90E
:1037F000676000E0376100202861E860BDE8F08183
:1038000038B504460D4685B16B460222294620464E
:1038100006F044FDBDF8000018B9032084F8360016
:1038200006E0022084F8360002E0022084F8360028
:103830002046FFF7BAFF38BD2DE9F04105460C469A
:1038400016461F461F48006880F8346000201D4956
:10385000096881F8350039461A480068FFF7D0FF3B
:103860006CB104F10808EC60012229461548006893
:10387000FFF788FF29464046FFF751FF06E000208A
:1038800010490968C8870F49096808630D4801682D
:103890002046FFF723FFBDE8F081000078000020FC
:1038A000C0000020C8000020C400002020B800088C
:1038B00070000020A60000206C860020A7000020D9
:1038C0001C010020180100205461736B205100007E
:1038D0005461736B2053656D0000000020000000F0
:1038E00010B50489012C03D100240460446011E068
:1038F0000C6824B94A680024146002600AE04C682D
:1039000024B90B6800245C60436003E00B684A68DC
:103910005A6013600489641E048100244C600C60AA
:1039200010BD2DE9F0410446256BE68F0AE0D5F87D
:103930000C8008F1080729463846FFF7D1FF2035EB
:10394000701E86B2002EF2DC0020E0872063BDE806
:10395000F08130B50346086BCC8F08E0C5689D4206
:1039600002D10361C26104E02030651EACB2002CBC
:10397000F4DC00BF30BD10B590F8373003EB4303E3
:10398000FE4C04EB83010B893BB901230B8100231F
:10399000C36003610860486009E00B895B1C0B8110
:1039A0000B68C360002303610A681061086010BDE2
:1039B00010B590F8373003EB4303F04C04EB830170
:1039C0000B893BB901230B810023C36003610860AD
:1039D000486008E00B895B1C0B810023C3604A68C8
:1039E0000261D060486010BD10B5044694F83700FD
:1039F00002F0E0FD94F83700E1490978884203D1EC
:103A00002046FFF7D5FF02E02046FFF7B4FF10BDC8
:103A100010B50446204606F0B7FA94F8360010F0C8
:103A2000040F02D12046FFF7DFFF10BD70B5054639
:103A30000C46164694F8360008284DD2DFE800F010
:103A40000405080906072A2B00BF00BF00BF44E099
:103A500000BF94F83400032804D13246214628469A
:103A6000FFF777FF0020E065A4F86000266415B139
:103A70002046FFF756FF2046FFF7CAFF002004F15B
:103A80003404A0704FF0010060704FF0000004F8A3
:103A9000340922E000BF94F83400032804D13246F0
:103AA00021462846FFF755FF0020E065A4F8600096
:103AB000266415B12046FFF734FF204606F064FA6D
:103AC000042004F13404A0704FF0010060704FF046
:103AD000000004F8340900E000BF00BF70BD30B53D
:103AE000AFF20825C1F8C45000F1080422681AB1E9
:103AF00093681D6AC56102E0AFF22025C56130BD43
:103B00002DE9F04304460F4684F83770256BB4F86E
:103B10003E8013E0D5F80C9009F1080630890128A1
:103B200007D929463046FFF7DBFE29463046FFF726
:103B3000F6FD2035A8F101001FFA80F8B8F1000F5A
:103B4000E8D1BDE8F0830021016041600181704748
:103B500003895B1C038103684B6000230B600268D0
:103B600002B1116001600389012B00D141607047EF
:103B700030B50346086BCC8F08E0C5689D4202D182
:103B80000361C26104E02030651EACB2002CF4DC9D
:103B900000BF30BD70B506460C46154694F8360099
:103BA00008284BD2DFE800F0040508090607292A97
:103BB00000BF00BF00BF42E000BF94F834000328FC
:103BC00004D12A4621463046FFF7D2FF0020E065A7
:103BD000A4F8600025642046FFF7A3FE2046FFF707
:103BE00017FF002004F13404A0704FF00200607051
:103BF0004FF0000004F8340921E000BF94F83400CD
:103C0000032804D12A4621463046FFF7B1FF0020A1
:103C1000E065A4F860002564204606F0B5F920466A
:103C2000FFF77FFE042004F13404A0704FF002007F
:103C300060704FF0000004F8340900E000BF00BFDE
:103C400070BDF0B50446059E086BCD8F0AE0C768CD
:103C5000A74204D1046142610383C66104E02030BD
:103C60006F1EBDB2002DF2DC00BFF0BD2DE9F843A0
:103C700006460C4617469846089D94F836000828D4
:103C800053D2DFE800F00405080906072C2D00BF19
:103C900000BF00BF4AE000BF94F83400032807D1FA
:103CA00043463A46214630460095FFF7CAFF03E0F7
:103CB000E765A4F86080256436B12046FFF731FE41
:103CC00021463046FFF70BFF2046FFF7A1FE0020FC
:103CD00004F13404A070607004F8340926E000BFD9
:103CE00094F83400032807D143463A46214630462B
:103CF0000095FFF7A6FF03E0E765A4F86080256460
:103D0000204606F041F936B12046FFF70AFE21466B
:103D10003046FFF7E4FE042004F13404A0704FF0B5
:103D20000000607004F8340900E000BF00BFBDE887
:103D3000F88310B5002400BFFCF756FF044600BF0F
:103D400000201049087010481049086008460068B3
:103D5000D0F89000401C0968C1F890000C48006839
:103D6000401C0B4908604FF080500A49086000BFB2
:103D70002046FCF73DFF00BF10BD00006C86002010
:103D8000A6000020A7000020988500201C0100202C
:103D9000EC00002004ED00E070B505460026354833
:103DA0000078012800D070BD00BF00BFFCF71CFFE9
:103DB000064600BFFCF74DFF00BF2C684CB900BFA2
:103DC000FCF728FF00BF3046FCF712FF00BF00BF22
:103DD000E9E72948844209D100BFFCF71BFF00BF77
:103DE0003046FCF705FF00BF00BFDCE7A06D10B157
:103DF000A06D401EA065A06D48B100BFFCF70AFF92
:103E000000BF3046FCF7F4FE00BF00BFCBE72889B7
:103E1000022809DA00BFFCF7FDFE00BF3046FCF7C0
:103E2000E7FE00BF00BFBEE714480078002809DDA8
:103E300000BFFCF7EFFE00BF3046FCF7D9FE00BF25
:103E400000BFB0E72846FFF7A2FB2C68606D18B9E9
:103E50000B480068A06501E0606DA06500BFFCF73D
:103E6000D9FE00BF3046FCF7C3FE00BF00BF00BF55
:103E700099E70000C8000020D0840020C000002086
:103E8000C4000020254A2649264A274A2749284AAD
:103E90002848294A294A2A4A2A4A2B482B482C488A
:103EA0002C4A2D482D4A2E482E4A2F482F4830485C
:103EB0003048314A314A324A3248334A334A344828
:103EC000344835483548364836483748374A384AFE
:103ED000384A394A39483A483A483B4A3B4A3C4AC8
:103EE0003C483D483D483E493E483F4A3F4A404A9B
:103EF000404A414A414A424A4248434A434A444866
:103F00004448454A454A4648464A474A4748484839
:103F1000484800BF00BF00BF7047000064B80008F9
:103F2000CCB9000865B8000866B8000868B8000891
:103F30006CB8000870B800086DB8000898B80008A0
:103F400099B800089AB800089CB800089EB8000804
:103F5000A0B80008A2B80008A4B80008C4B80008B7
:103F6000C6B80008C8B80008CAB80008CCB800082D
:103F7000CEB80008D0B80008FCB80008FDB80008AA
:103F8000FEB8000800B9000802B9000803B900082B
:103F900004B9000806B9000808B900080AB9000801
:103FA0000CB900080EB9000810B9000840B90008A3
:103FB00041B9000842B9000843B9000844B90008F3
:103FC00046B9000848B9000870B9000871B900087E
:103FD00072B9000873B9000874B9000876B900080E
:103FE00078B900087CB900087DB900087EB90008DE
:103FF0007FB9000880B9000881B9000882B90008BB
:1040000083B9000884B9000886B9000887B9000898
:1040100088B900088AB900088CB900088DB9000871
:1040200090B90008C4B90008C5B90008C6B90008AD
:10403000C8B90008CAB90008FCA1C16100214161EA
:10404000FB49096811B90021816105E0F849096857
:104050008161F74909684861F549086070472DE9B1
:10406000F04104460E4617461D464FF00008F14841
:104070000078002804DD42F6E1602880BDE8F08188
:104080001CB945F6C3502880F8E700BF00BF00BF49
:10409000FCF7AAFD804600BFFCF7DBFD00BFE64849
:1040A0000078401CE449087008460078012801D1D6
:1040B000FFF74EF900BFFCF7ADFD00BF4046FCF72F
:1040C00097FD00BF00BF00BFDC482060666027622C
:1040D0000020606204F10800FFF735FD2046FFF77D
:1040E000ABFFD7480088401CD549088000BF00BFFF
:1040F00000BFFCF779FD804600BFFCF7AAFD00BFBA
:10410000CD480078401ECC4908700846007808B9B0
:10411000FFF760F900BFFCF77DFD00BF4046FCF7EC
:1041200067FD00BF00BF00BF0020288000BFA5E7DB
:1041300070B50446C3482060C3A0606000202062C0
:1041400004F108052846FFF7FEFC70BD426981694D
:104150003AB9B74B196009B100234B610023836161
:1041600009E019B900239361436104E091614A6158
:1041700000238361436170472DE9FC5F0546884653
:10418000144600200090AB480078002805DD43F27B
:10419000C92020800020BDE8FC9F25B945F6C3500A
:1041A00020800020F7E7B8F1000F03D0B8F1010F2D
:1041B00002D100E000BF04E045F625602080002029
:1041C000E9E700BF9D492868884204D045F6C450FD
:1041D00020800020DFE700BF00BF00BFFCF704FD28
:1041E000009000BFFCF735FD00BF93480078401CED
:1041F0009149087008460078012801D1FFF7A8F816
:1042000000BFFCF707FD00BF0098FCF7F1FC00BF02
:1042100000BF00BF05F10809B9F808603746B8F1DA
:10422000000F03D0B8F1010F74D182E0002F44D108
:104230002846FFF78BFF82480088401E804908808F
:104240002846FFF775FF00BF00BF00BFFCF7CCFC9E
:10425000009000BFFCF7FDFC00BF77480078401ECF
:104260007549087008460078D0B9FFF7B3F8784868
:10427000008800280BDD00BFFCF7CCFC00BF0098D5
:10428000FCF7B6FC00BF00BFFFF753FD11E000BF15
:10429000FCF7C0FC00BF0098FCF7AAFC00BF08E0D8
:1042A00000BFFCF7B7FC00BF0098FCF7A1FC00BF03
:1042B00000BF00BF002020803AE000BF00BF00BF69
:1042C000FCF792FC009000BFFCF7C3FC00BF5A480B
:1042D0000078401E5849087008460078D8B9FFF7A2
:1042E00079F85B48008800280BDD00BFFCF792FCE2
:1042F00000BF0098FCF77CFC00BF00BFFFF719FD72
:1043000012E000BFFCF786FC00BF0098FCF770FCD1
:1043100000BF09E04CE000BFFCF77CFC00BF009848
:10432000FCF766FC00BF00BF00BF47F25F102080B3
:1043300079E007F073F801900AE0D9F800A0DAF804
:1043400008B059462846019AFFF724FC701E86B231
:10435000002EF2D12846FFF7F9FE39480088401EAA
:10436000374908802846FFF7E3FE00BF00BF00BFC3
:10437000FCF73AFC009000BFFCF76BFC00BF2E4836
:104380000078401E2C4908700846007808B9FFF7ED
:1043900021F800BFFCF73EFC00BF0098FCF728FCAA
:1043A00000BF00BF00BFFEF790FF002020803AE072
:1043B00000BF00BF00BFFCF717FC009000BFFCF778
:1043C00048FC00BF1C480078401E1B490870084686
:1043D0000078D0B9FEF7FEFF1D48008800280BDDED
:1043E00000BFFCF717FC00BF0098FCF701FC00BF02
:1043F00000BFFFF79EFC11E000BFFCF70BFC00BF05
:104400000098FCF7F5FB00BF08E000BFFCF702FCDA
:1044100000BF0098FCF7ECFB00BF00BF00BF45F6F3
:104420002560208000BF00BF3846B4E620000000B1
:104430009000002070000020C0000020464C414742
:10444000940000204E4F4E453F464C41470000002F
:10445000840000202DE9F04106460F4614461D4613
:10446000DDF81880FE480068C0F88040FC4800680D
:10447000A0F888500020FA490968C1F88400434632
:10448000012239463046FFF7D7F9BDE8F0812DE922
:10449000F04F8BB00546884693469946DDE9147483
:1044A00000200190EF480078002806DD46F2AE10AB
:1044B000208000200BB0BDE8F08F25B945F6C35031
:1044C00020800020F6E748F20101A9EB01008945B0
:1044D00037D01ADC40F20111A9EB010089452CD03C
:1044E0000CDCB9F1010F24D0B9F1020F22D0B9F1DF
:1044F000040F20D0B9F1080F2BD11DE001281DD0E9
:1045000003281CD0072824D11AE0B0F5807F1CD0E6
:1045100006DC012816D0032815D0072819D113E08E
:10452000A0F58070013811D0022810D0062810D1D3
:104530000EE000BF00BF00BF00BF00BF00BF00BF54
:1045400000BF00BF00BF00BF00BF00BF00BF00BF73
:1045500004E045F6256020800020ABE700BFC2499B
:104560002868884204D045F6C45020800020A1E786
:1045700019F4807F02D04FF0010A01E04FF0000AE9
:104580000FB10020386009F00F000A9000BF00BF93
:10459000FCF72AFB019000BFFCF75BFB00BF0A9809
:1045A00001287CD002287BD0042802D0082878D1AA
:1045B00082E0286A00EA0806464519D1BAF1010FDF
:1045C00002D1286AB0432862A5480068C0F8846018
:1045D0000FB1686A386000BFFCF71CFB00BF019890
:1045E000FCF706FB00BF00BF00202080304661E7DB
:1045F00019F4004F0DD000BFFCF70CFB00BF019871
:10460000FCF7F6FA00BF00BF46F2B0102080002091
:1046100050E79648007800280DDD00BFFCF7FAFA55
:1046200000BF0198FCF7E4FA00BF00BF46F66350F4
:10463000208000203EE700BF8C480078401C8B495A
:10464000087008460078012801D1FEF781FE00BFFE
:10465000FCF7E0FA00BF0198FCF7CAFA00BF00BF00
:1046600000BF4B464246294602A8CDF800B0FFF7EE
:10467000F1FE00BF00BF00BFFCF7B6FA019000BF1B
:10468000FCF7E7FA00BF79480078401E77490870C8
:104690000846007808B9FEF79DFE00BF02E089E0F9
:1046A00010E18DE1FCF7B6FA00BF0198FCF7A0FA23
:1046B00000BF00BF00BF91E1286A00EA0806CEB142
:1046C000BAF1010F02D1286AB04328626448006839
:1046D000C0F884600FB1686A386000BFFCF79AFACE
:1046E00000BF0198FCF784FA00BF00BF00202080C3
:1046F0003046DFE619F4004F0DD000BFFCF78AFA10
:1047000000BF0198FCF774FA00BF00BF46F2B0107A
:1047100020800020CEE65548007800280DDD00BF3F
:10472000FCF778FA00BF0198FCF762FA00BF00BFFF
:1047300046F6635020800020BCE600BF4B4800785E
:10474000401C4A49087008460078012801D1FEF74C
:10475000FFFD00BFFCF75EFA00BF0198FCF748FAC6
:1047600000BF00BF00BF4B464246294602A8CDF815
:1047700000B0FFF76FFE00BF00BF00BFFCF734FAC8
:10478000019000BFFCF765FA00BF38480078401E72
:10479000364908700846007808B9FEF71BFE00BFCE
:1047A000FCF738FA00BF0198FCF722FA00BF00BFFF
:1047B00000BF13E1286A28EA0006464519D1BAF17C
:1047C000010F02D1286A3043286225480068C0F8EA
:1047D00084600FB1686A386000BFFCF71BFA00BF45
:1047E0000198FCF705FA00BF00BF0020208030468A
:1047F00060E619F4004F0DD000BFFCF70BFA00BFC4
:104800000198FCF7F5F900BF00BF46F2B010208018
:1048100000204FE61548007800280DDD00BFFCF7AA
:10482000F9F900BF0198FCF7E3F900BF00BF46F6B5
:104830006350208000203DE600BF0C480078401CFB
:104840000A49087008460078012801D1FEF780FD6A
:1048500000BFFCF7DFF900BF0198FCF7C9F907E0DA
:104860001801002070000020464C4147C000002085
:1048700000BF00BF00BF4B464246294602A8CDF804
:1048800000B0FFF7E7FD00BF00BF00BFFCF7ACF9C9
:10489000019000BFFCF7DDF900BFF8480078401E2A
:1048A000F64908700846007808B9FEF793FD00BF86
:1048B000FCF7B0F900BF0198FCF79AF900BF00BF00
:1048C00000BF8BE0286A28EA0006CEB1BAF1010FDA
:1048D00002D1286A30432862E9480068C0F8846041
:1048E0000FB1686A386000BFFCF794F900BF019807
:1048F000FCF77EF900BF00BF002020803046D9E5DC
:1049000019F4004F0DD000BFFCF784F900BF0198E7
:10491000FCF76EF900BF00BF46F2B0102080002007
:10492000C8E5D648007800280DDD00BFFCF772F915
:1049300000BF0198FCF75CF900BF00BF46F663506A
:1049400020800020B6E500BFCC480078401CCB4951
:10495000087008460078012801D1FEF7F9FC00BF75
:10496000FCF758F900BF0198FCF742F900BF00BFFF
:1049700000BF4B464246294602A8CDF800B0FFF7DB
:1049800069FD00BF00BF00BFFCF72EF9019000BF1A
:10499000FCF75FF900BFB9480078401EB7490870BE
:1049A0000846007808B9FEF715FD00BFFCF732F99C
:1049B00000BF0198FCF71CF900BF00BF00BF0DE06D
:1049C00000BFFCF727F900BF0198FCF711F900BF01
:1049D00000BF45F62560208000206BE500BFFEF794
:1049E00074FC00BF00BFFCF7FFF8019000BFFCF7AC
:1049F00030F900BFA248006890F8350030B10128B6
:104A00000CD002282CD003283CD119E01FB19C48BF
:104A10000068006C38600020208040E01FB198489A
:104A20000068006C386000BFFCF7F4F800BF019824
:104A3000FCF7DEF800BF00BF46F2A91020802EE090
:104A40000FB10020386000BFFCF7E4F800BF019808
:104A5000FCF7CEF800BF00BF47F2D92020801EE04F
:104A60001FB187480068006C386000BFFCF7D2F8BF
:104A700000BF0198FCF7BCF800BF00BF45F6C2506C
:104A800020800CE000BFFCF7C5F800BF0198FCF7E0
:104A9000AFF800BF00BF46F62E60208000BF00BF09
:104AA000208808B1002005E575480068D0F88460CA
:104AB000BAF1010F22D10A9801280BD002280AD09E
:104AC000042802D008280AD100E000BF286AB043B9
:104AD000286212E000BF286A304328620DE000BF60
:104AE000FCF798F800BF0198FCF782F800BF00BF00
:104AF00045F6256020800020DCE400BF00BFFCF705
:104B000089F800BF0198FCF773F800BF00BF0020D0
:104B100020803046CEE42DE9F05F05460E4614466F
:104B20004FF0000A57480078002805DD46F2AA1029
:104B300020800020BDE8F09F25B945F6C3502080B5
:104B40000020F7E74EB1B6F5807F07D0B6F5004FED
:104B500005D0B6F5014F04D102E000BF00BF00BF91
:104B600004E045F6256020800020E3E700BF4649C9
:104B70002868884204D045F6C45020800020D9E738
:104B800000BF00BFFCF730F8824600BFFCF761F8B9
:104B900000BF05F10807388968B900BFFCF73AF88B
:104BA00000BF5046FCF724F800BF00BF46F2AB1030
:104BB00020800020BEE700BF30480078401C2F490D
:104BC000087008460078012801D1FEF7C1FB00BF3C
:104BD000FCF720F800BF5046FCF70AF800BF00BF02
:104BE00000BF4FF0000806F019FC83460FE038685C
:104BF000D0F808905A4649462846FEF717FF08F1B4
:104C000001001FFA80F8B6F5807F00D002E03889F5
:104C10000028ECDC00BF00BF00BF00BFFBF7E4FFD3
:104C2000824600BFFCF715F800BF14480078401E0C
:104C3000124908700846007808B9FEF7CBFB00BFA0
:104C4000FBF7E8FF00BF5046FBF7D2FF00BF00BFF5
:104C500000BF16F4004F01D1FEF737FB0020208083
:104C6000404667E770B504460026064800780028ED
:104C70000CDD46F2AE102080002070BDC000002088
:104C80001801002070000020464C414700BF00BFC3
:104C9000FBF7AAFF064600BFFBF7DBFF00BFE448B7
:104CA0000068D0F8845000BFFBF7B4FF00BF304667
:104CB000FBF79EFF00BF00BF002020802846DCE7F6
:104CC00070B504460D46164604F1340425654FF0D0
:104CD000000060702070E660A078A4F13404082819
:104CE00016D2DFE800F0040508090706101100BF1E
:104CF00000BF00BF0DE000BF2046FEF789FE002088
:104D000084F8360005E000BF042084F8360000E097
:104D100000BF00BF2046FEF704FE70BD2DE9F04F36
:104D200085B00446894692469B46DDF838800020CF
:104D3000009000BF00BFFBF757FF009000BFFBF7DC
:104D400088FF00BFBAF1000F0BD0BAF1010F0ED0EF
:104D5000BAF5004F06D06FF400401AEB00000CD1FA
:104D600006E000BF206A40EA0900206216E000BFAA
:104D7000206A20EA0900206210E000BFFBF74AFF2A
:104D800000BF0098FBF734FF00BF00BF45F6256069
:104D9000A8F80000002005B0BDE8F08F00BFC4F8FF
:104DA00024B004F1080001900198008968B900BF9F
:104DB000FBF730FF00BF0098FBF71AFF00BF00BFF2
:104DC0000020A8F80000206AE5E700BF99480078B5
:104DD000401C9849087008460078012801D1FEF768
:104DE000B7FA00BFFBF716FF00BF0098FBF700FF04
:104DF00000BF00BF00BF01980768BD6889E0786800
:104E0000029095F8880000F00F00039003980128A5
:104E100021D002282ED0042802D0082836D10EE056
:104E2000206AD5F8801000EA0106D5F88000B0426B
:104E300004D15A4631462846FFF742FF63E0206A14
:104E4000D5F8801000EA010626B15A4631462846B8
:104E5000FFF736FF57E0D5F88000216A20EA010607
:104E6000D5F88000B04204D15A4631462846FFF7B3
:104E700027FF48E0D5F88000216A20EA010626B124
:104E80005A4631462846FFF71BFF3CE000BF00BFF3
:104E900000BFFBF7A9FE009000BFFBF7DAFE00BFE2
:104EA00064480078401E6349087008460078D0B90D
:104EB000FEF790FA6048008800280BDD00BFFBF782
:104EC000A9FE00BF0098FBF793FE00BF00BFFEF7EE
:104ED00030FF11E000BFFBF79DFE00BF0098FBF71D
:104EE00087FE00BF08E000BFFBF794FE00BF0098FC
:104EF000FBF77EFE00BF00BF00BF43F6FF20A8F80F
:104F00000000002047E700BF029F0FB1BD6800E02E
:104F10000025002D7FF473AF00BF00BF00BFFBF77B
:104F200063FE009000BFFBF794FE00BF414800788D
:104F3000401E404908700846007808B9FEF74AFA52
:104F400000BFFBF767FE00BF0098FBF751FE00BFF4
:104F500000BF00BF1AF4004F01D1FEF7B6F900BF41
:104F600000BFFBF741FE009000BFFBF772FE00BFE1
:104F7000206A049000BFFBF74DFE00BF0098FBF7CE
:104F800037FE00BF00BF0020A8F80000049802E729
:104F90002DE9FF470546884617461C4635B945F6B4
:104FA000C3502080002004B0BDE8F0874FB1012F2E
:104FB00008D0B7F5004F06D06FF40040381804D180
:104FC00002E000BF00BF00BF04E045F6256020807E
:104FD0000020E8E700BF19492868884204D045F658
:104FE000C45020800020DEE706F018FA0646144878
:104FF000007800280BDD00231A4629460F48CDE92A
:105000000087CDE9026400F021F80020CBE73346A9
:105010003A46414628460094FFF780FE81464846BE
:10502000C1E70021074A1160074A118001807047DB
:1050300018010020C000002084000020464C414799
:105040007000002090000020940000202DE9F84F0F
:1050500004460D4616461F46DDE90BABDDF82890E9
:10506000DDF834800020009000BF00BFFBF7BCFDDE
:10507000009000BFFBF7EDFD00BFE5480088E54963
:10508000098888423EDAE2480088401CE0490880EE
:10509000E14800880988884203DADD480088DE4953
:1050A0000880DE4800680460DC4800688560DB48F2
:1050B0000068C660D94800680782D8480068C0F810
:1050C0001490D6480068A0F818A0D4480068C0F82A
:1050D0001CB0D24800684068D04908600120D0491F
:1050E0000881D04808604860002001F063FACE488B
:1050F000007818B1CC480078CC4908700020A8F896
:10510000000008E0CA480088401CC949088044F2F1
:105110005360A8F8000000BFFBF77CFD00BF0098BB
:10512000FBF766FD00BF00BFBDE8F88F3EB5C14884
:1051300000680068C04A811A90427CD00CDCBF49EC
:10514000401839D0BE49401810D0BE4940185CD034
:10515000BD49401867D13CE0BC4808184ED0BC4956
:10516000401861D0BB494018F4D110E002A8B14DFD
:1051700000902D68EB69AF4D2D682A8BAD4D2D68E1
:105180006969AC4D2D68A868FFF7C8FD7AE002A9EF
:10519000A8480068C069A74DCDE900012D682B8B98
:1051A000A44D2D682A8AA34D2D68E968A14D2D686C
:1051B000A86801F0ECFD65E09E4B1B68DA699D4B29
:1051C0001B68198B9B4B1B68986802AB02F041FA75
:1051D00058E002A997480068C069964DCDE90001E2
:1051E0002D682B8B934D2D682A8A924D2D68E96886
:1051F000904D2D68A86803F01BFD43E08D490968B8
:10520000886802A903F00AFF3CE08A4B1B68DA6950
:10521000884B1B68198B874B1B68986802AB04F09E
:10522000CDF92FE007E02CE082490968886802A9DF
:1052300004F05BFD26E07D49097801EB4101784AE5
:1052400002EB8100FEF7A8FD7A48006802AB00215E
:10525000C269814804F0B2F980480068401E7F4965
:1052600008600846006858B97D480068086006F084
:10527000D5F8044602AB224600217A4804F09EF994
:1052800000E000BF00BF3EBD002700BF56E0002683
:1052900052E000BF00BFFBF7A7FC074600BFFBF7CB
:1052A000D8FC00BF5A48008898B900205C490881A2
:1052B0000860486001F08EF900BFFBF7ABFC00BF4F
:1052C0003846FBF795FC00BF00BFFDF7FEFF012647
:1052D00032E000BFFBF79EFC00BF3846FBF788FCBE
:1052E00000BF00BF06F09AF80546FFF71FFF06F063
:1052F00095F8441B5C480068A04201D25A480460FB
:1053000000BF00BFFBF770FC074600BFFBF7A1FC26
:1053100000BF484800684068464908603C4800882B
:10532000401E3B49088000BFFBF774FC00BF3846B5
:10533000FBF75EFC00BF00BF002EAAD0A7E7F0B5C8
:1053400089B0054600203A4908804848006820B9DD
:1053500044F25260288009B0F0BD2E48008802282F
:1053600003DA44F254602880F5E700203E490860E3
:105370003E4804682646203600270CE03C48206062
:105380000020A060E060208260612083666020349D
:105390002036781C87B21F4800888742EEDB203C0D
:1053A0003248066866601D48066022480660002094
:1053B00017490880184908802E48006818B944F237
:1053C00055602880C7E72C4800682C490968884246
:1053D00003D244F256602880BDE7032000210591E6
:1053E000CDE90705069124480068254A1268214B3B
:1053F0001B68CDE90301CDE9013200910B46AFF204
:10540000771220A1074802F06AFF00BFA3E700005F
:1054100084000020D4B70008860000207C00002013
:105420006C86002098850020A6000020A80000209F
:1054300088000020800000205449434BADBAB2BE22
:105440000DF90BFAF2F8F7FF0006F6FF00F7FDF78B
:1054500000FFEFFF03FE0FFEB488002014010020C0
:10546000100100207C8900208C000020D0B70008AB
:105470004E4F4E45DCB70008E4B700081CB80008E2
:10548000E0B7000875432F4F532D49494920495330
:1054900052205175657565205461736B00000000E2
:1054A000002181619749096811B90021C16105E0B6
:1054B00094490968C1619349096888619149086004
:1054C00070472DE9FF4F83B0044615461F46DDE9BE
:1054D0001096002000908C480078002805DD45F2E9
:1054E000B960308007B0BDE8F08F1DB945F2BB60F0
:1054F0003080F7E7022F03DA45F2BC603080F1E735
:10550000B9F1040F03D245F2C1603080EAE74FF0F1
:10551000030ABAF1000F0DD015EA0A0F03D045F2C5
:10552000BB603080DEE719EA0A0F03D045F2C160A4
:105530003080D7E7AB46A846781E80B201900020A5
:10554000029007E0C844CBF80080C3460298401C94
:1055500080B20290DDE901108842F3DB0020CBF835
:10556000000000BF00BF00BFFBF73EFB009000BF84
:10557000FBF76FFB00BF65480078401C634908706B
:1055800008460078012801D1FDF7E2FE00BFFBF7D5
:1055900041FB00BF0098FBF72BFB00BF00BF00BF23
:1055A0005B4820600498A0606560E560A782678220
:1055B000A4F810902046FFF773FF56480088401C5F
:1055C0005449088000BF00BF00BFFBF70DFB0090EF
:1055D00000BFFBF73EFB00BF4C480078401E4B4924
:1055E00008700846007808B9FDF7F4FE00BFFBF725
:1055F00011FB00BF0098FBF7FBFA00BF00BF00BF24
:105600000020308000BF6DE72DE9F04104460D46D3
:1056100000272CB945F2BF6028800020BDE8F0814A
:1056200000BF00BFFBF7E0FA074600BFFBF711FB26
:1056300000BFA08A68B900BFFBF7ECFA00BF38468C
:10564000FBF7D6FA00BF00BF45F2C26028800020F9
:10565000E4E7E6683068E060A08A401EA08200BFF0
:10566000FBF7D8FA00BF3846FBF7C2FA00BF00BF0D
:10567000002028803046D1E72DE9F04104460E464F
:105680001546002724B945F2BF602880BDE8F081A7
:105690001EB945F2BE602880F8E700BF00BFFBF7E7
:1056A000A3FA074600BFFBF7D4FA00BFA08A618ABD
:1056B00088420CDB00BFFBF7ADFA00BF3846FBF7B2
:1056C00097FA00BF00BF45F2BA602880DEE7E068C5
:1056D0003060E660A08A401CA08200BFFBF79AFA07
:1056E00000BF3846FBF784FA00BF00BF00202880C7
:1056F00000BFCBE70021034A1160064A11800180F8
:10570000704700009800002070000020C0000020BA
:105710004D454D209C00002070B50146844D2D68FC
:105720001DB945F21E750D8070BD824D2D881DB9C5
:1057300045F21D750D80F7E77D4D28682A68103207
:105740007C4D2D886D1EACB2002308E00260002560
:1057500045600581C560103010325D1CABB2A342BC
:10576000F4DB0025056045600581C560704D2D683E
:10577000714E35606F4D2D88B5800025F5803581DF
:105780000D8000BFD0E710B5014648894B89002B3A
:1057900017DD0A68684B1B681360674C4B68236011
:1057A0002346DB884C891B1B634CE38023469B8884
:1057B0004C892344604CA38000234B818B810B6078
:1057C0004B6010BD018100224281828102604260F3
:1057D0007047F0B504460D46608940B90020288026
:1057E00002B1106046F2925018800020F0BD61684E
:1057F0004E68088928800AB1C8681060086860602F
:10580000606818B900202060608102E06089401E55
:105810006081494800680860474801608088401CF2
:10582000454FB8803846C088401EF8800020188058
:105830003046DBE72DE9F0410D46DDE90674B0F8AE
:105840000AC0B0F80880C44505DB46F2935CA4F8B2
:1058500000C0BDE8F081DFF8E0C0BCF804C0BCF1D6
:10586000000F04D145F21D7CA4F800C0F1E7DFF879
:10587000C8C0DCF80010DFF8C080D1F800C0C8F85C
:1058800000C0C446BCF804C0ACF1010CA8F804C0C8
:10589000C446BCF806C00CF1010CA8F806C0C4460A
:1058A000BCF808C0B8F80680C44507DADFF888C03D
:1058B000BCF806C0DFF88080A8F808C0B0F80AC0BD
:1058C000BCF1000F0AD1016041604FF0010CA0F85B
:1058D0000AC04FF0000CC1F800C015E013F0100F23
:1058E00007D10668316001604FF0000CC1F800C0BC
:1058F00004E0D0F804C0C1F800C04160B0F80AC0AC
:105900000CF1010CA0F80AC0B0F80CC0B0F80A8085
:10591000C44503DAB0F80AC0A0F80CC04D600A8193
:10592000CF604FF0000CA4F800C000BF91E700006A
:1059300000B80008F8B7000860860020F9A1C1612E
:1059400000214161F849096811B90021816105E030
:10595000F54909688161F44909684861F2490860BC
:1059600070472DE9F04104460E4615460027EF48E2
:105970000078002804DD42F6E1602880BDE8F0816F
:105980001CB945F6C3502880F8E700BF00BF00BF30
:10599000FBF72AF9074600BFFBF75BF900BFE448B5
:1059A0000078401CE249087008460078012801D1BF
:1059B000FDF7CEFC00BFFBF72DF900BF3846FBF723
:1059C00017F900BF00BF00BFDA4820606660002002
:1059D000206284F82500A062202084F8240004F1CD
:1059E0000800FEF7B0F82046FFF7A8FFD24800886D
:1059F000401CD149088000BF00BF00BFFBF7F4F88E
:105A0000074600BFFBF725F900BFC9480078401ED4
:105A1000C74908700846007808B9FDF7DBFC00BFED
:105A2000FBF7F8F800BF3846FBF7E2F800BF00BF0D
:105A300000BF0020288000BFA0E710B50446BF4883
:105A40002060BFA060600020206284F82500A06272
:105A5000202084F8240004F10800FEF774F810BD3B
:105A6000426981693AB9B04B196009B100234B61B1
:105A70000023836109E019B900239361436104E0C5
:105A800091614A6100238361436170472DE9FE4FB4
:105A900005468946144600200090A4480078002856
:105AA00005DD43F2C92020800020BDE8FE8F25B926
:105AB00045F6C35020800020F7E7B9F1000F03D06E
:105AC000B9F1010F02D100E000BF04E045F6256006
:105AD00020800020E9E700BF96492868884204D06A
:105AE00045F6C45020800020DFE700BF00BF00BFA4
:105AF000FBF77AF8009000BFFBF7ABF800BF8C48CB
:105B00000078401C8A49087008460078012801D1B5
:105B1000FDF71EFC00BFFBF77DF800BF0098FBF708
:105B200067F800BF00BF00BF05F1080ABAF80870A7
:105B3000B846B9F1000F03D0B9F1010F75D183E078
:105B4000B8F1000F44D12846FFF78AFF7A48008851
:105B5000401E794908802846FFF76FFF00BF00BF4D
:105B600000BFFBF741F8009000BFFBF772F800BFE1
:105B70006F480078401E6E49087008460078D0B91A
:105B8000FDF728FC7048008800280BDD00BFFBF7FC
:105B900041F800BF0098FBF72BF800BF00BFFEF7ED
:105BA000C8F811E000BFFBF735F800BF0098FBF71D
:105BB0001FF800BF08E000BFFBF72CF800BF0098FB
:105BC000FBF716F800BF00BF00BF002020803AE0BE
:105BD00000BF00BF00BFFBF707F8009000BFFBF756
:105BE00038F800BF52480078401E514908700846F6
:105BF0000078D8B9FDF7EEFB5348008800280BDD8C
:105C000000BFFBF707F800BF0098FAF7F1FF00BFED
:105C100000BFFEF78EF812E000BFFAF7FBFF00BFEF
:105C20000098FAF7E5FF00BF09E0D1E000BFFAF7FE
:105C3000F1FF00BF0098FAF7DBFF00BF00BF00BF15
:105C400047F25F102080FEE02E6A002E7ED096F88C
:105C5000370095F8241088427AD096F83600082844
:105C600024D2DFE800F004131A1B14151C1D304663
:105C7000FDF79BFD95F8240086F8370096F837006D
:105C800000F098FC3046FDF793FE60E000BF00BFD7
:105C900095F8240086F8370059E000BF00BF00BF28
:105CA00095F824103046FDF72BFF50E000BF00BFF1
:105CB00000BFFAF799FF009000BFFAF7CAFF00BFD4
:105CC0001B480078401E1A49087008460078D0B971
:105CD000FDF780FB1C48008800280BDD00BFFAF7A9
:105CE00099FF00BF0098FAF783FF00BF00BFFEF7DF
:105CF00020F811E000BFFAF78DFF00BF0098FAF717
:105D000077FF00BF08E000BFFAF784FF00BF0098EC
:105D1000FAF76EFF00BF00BF00BF46F62D6020807F
:105D20000020C2E620000000A0000020700000203B
:105D3000C00000204D555458A40000204E4F4E4541
:105D40003F4D5554455800008400002000E000BF3E
:105D500005F064FB01900BE0DAF800B0DBF8080016
:105D600002902846DDE90121FDF714FF781E87B275
:105D7000002FF1D12846FFF773FEF9480088401E36
:105D8000F74908802846FFF758FE00BF00BF00BF54
:105D9000FAF72AFF009000BFFAF75BFF00BFF14857
:105DA0000078401EEF4908700846007808B9FDF7F2
:105DB00011FB00BFFAF72EFF00BF0098FAF718FF9B
:105DC00000BF00BF00BFFDF780FA002020803AE04E
:105DD00000BF00BF00BFFAF707FF009000BFFAF74F
:105DE00038FF00BFDF480078401EDE4908700846D3
:105DF0000078D0B9FDF7EEFADB48008800280BDD0B
:105E000000BFFAF707FF00BF0098FAF7F1FE00BFE6
:105E100000BFFDF78EFF11E000BFFAF7FBFE00BFE9
:105E20000098FAF7E5FE00BF08E000BFFAF7F2FEBF
:105E300000BF0098FAF7DCFE00BF00BF00BF45F6C8
:105E40002560208000BF00BF40462EE62DE9F047C8
:105E500088B00546894690461C46109E4FF0000AC1
:105E6000C2480078002805DD46F2AE10308008B048
:105E7000BDE8F0871DB945F6C3503080F7E7B8F1AB
:105E8000000F03D0B8F5004F02D100E000BF03E0DF
:105E900045F625603080EAE700BFB54928688842AA
:105EA00003D045F6C4503080E1E70CB100202060FB
:105EB00000BF00BFFAF798FE824600BFFAF7C9FE9E
:105EC00000BF95F82500D0B9AA4800682862A94803
:105ED000006890F8370085F82400012085F8250037
:105EE0000CB1A86A206000BFFAF794FE00BF5046CC
:105EF000FAF77EFE00BF00BF00203080B7E79D4963
:105F0000286A0968884214D195F82500401C85F854
:105F100025000CB1A86A206000BFFAF77BFE00BF25
:105F20005046FAF765FE00BF00BF45F28270308030
:105F30009DE718F4004F0CD000BFFAF76BFE00BFCE
:105F40005046FAF755FE00BF00BF46F2B010308051
:105F50008DE78448007800280CDD00BFFAF75AFE70
:105F600000BF5046FAF744FE00BF00BF46F663503C
:105F700030807CE700BF7B480078401C794908707E
:105F800008460078012801D1FDF7E2F900BFFAF7D1
:105F900041FE00BF5046FAF72BFE00BF00BF00BF16
:105FA0002F6A97F837007349096891F837108842CB
:105FB0006ADD97F8360008282AD2DFE800F00415D9
:105FC0001E1F171620213846FDF7EFFB69480068B1
:105FD00090F8370087F8370097F8370000F0EAFAB2
:105FE0003846FDF7C8FC4EE000BF00BF61480068BE
:105FF00090F8370087F8370045E000BF00BF00BFCA
:106000005C48006890F837103846FDF779FD3AE0B3
:1060100000BF00BF00BFFAF7E7FD824600BFFAF7F6
:1060200018FE00BF4F480078401E4E4908700846D1
:106030000078D0B9FDF7CEF94B48008800280BDD79
:1060400000BFFAF7E7FD00BF5046FAF7D1FD00BFE9
:1060500000BFFDF76EFE11E000BFFAF7DBFD00BFE9
:106060005046FAF7C5FD00BF08E000BFFAF7D2FDC1
:1060700000BF5046FAF7BCFD00BF00BF00BF46F6A8
:106080002D603080F3E600BF4B4604222946684667
:10609000FDF7D2FB00BF00BF00BFFAF7A5FD8246A7
:1060A00000BFFAF7D6FD00BF2E480078401E2D49EC
:1060B00008700846007808B9FDF78CF900BFFAF7B8
:1060C000A9FD00BF5046FAF793FD00BF00BF00BF17
:1060D000FDF7FBF800BF00BFFAF786FD824600BF60
:1060E000FAF7B7FD00BF2348006890F8350030B1DB
:1060F00001280CD002281AD0032821D110E01CB1AD
:106100001C480068006C2060002030801CE01CB13E
:1061100018480068006C206046F2A910308013E037
:106120000CB10020206047F2D92030800CE01CB177
:1061300010480068006C206045F6C250308003E0D3
:1061400046F62E60308000BF00BF00BFFAF762FD48
:1061500000BF5046FAF74CFD00BF00BF00BF86E607
:10616000A4000020C0000020840000207000002057
:106170004D555458180100202DE9F05F05460E4694
:1061800014464FF0000AF5480078002805DD46F275
:10619000AA1020800020BDE8F09F25B945F6C35025
:1061A00020800020F7E74EB1B6F5807F07D0B6F526
:1061B000004F05D0B6F5014F04D102E000BF00BF8B
:1061C00000BF04E045F6256020800020E3E700BF23
:1061D000E3492868884204D045F6C4502080002056
:1061E000D9E700BF00BFFAF7FFFC824600BFFAF70D
:1061F00030FD00BF05F10807388968B900BFFAF71C
:1062000009FD00BF5046FAF7F3FC00BF00BF46F29D
:10621000AB1020800020BEE700BFD2480078401CB1
:10622000D049087008460078012801D1FDF790F8A0
:1062300000BFFAF7EFFC00BF5046FAF7D9FC00BFE9
:1062400000BF00BF4FF0000805F0E8F883460FE0FC
:106250003868D0F808905A4649462846FDF7E6FBCC
:1062600008F101001FFA80F8B6F5807F00D002E047
:1062700038890028ECDC00BF00BF00BF00BFFAF780
:10628000B3FC824600BFFAF7E4FC00BFB5480078D3
:10629000401EB44908700846007808B9FDF79AF81E
:1062A00000BFFAF7B7FC00BF5046FAF7A1FC00BFE9
:1062B00000BF00BF16F4004F01D1FDF706F8002023
:1062C0002080404667E72DE9F84F0446884615468A
:1062D0004FF0000AA1480078002804DD46F20E20A5
:1062E0002880BDE8F88F1CB945F6C3502880F8E730
:1062F000B8F1000F03D0B8F5004F02D100E000BFA5
:1063000003E045F625602880EBE700BF944920684C
:10631000884203D045F6C4502880E2E700BF00BFA2
:10632000FAF762FC824600BFFAF793FC00BF8E4981
:10633000206A096888420CD000BFFAF76BFC00BFE6
:106340005046FAF755FC00BF00BF45F28170288027
:10635000C7E700BF83480078401C824908700846A0
:106360000078012801D1FCF7F3FF00BFFAF752FCD7
:1063700000BF5046FAF73CFC00BF00BF00BF05F06D
:106380004DF80746A76294F82500401E84F82500C2
:1063900094F8250000283ADD00BF00BF00BFFAF7DF
:1063A00023FC824600BFFAF754FC00BF6D4800781A
:1063B000401E6C49087008460078D0B9FDF70AF80D
:1063C0006A48008800280BDD00BFFAF723FC00BFF5
:1063D0005046FAF70DFC00BF00BFFDF7AAFC11E024
:1063E00000BFFAF717FC00BF5046FAF701FC00BFE8
:1063F00008E000BFFAF70EFC00BF5046FAF7F8FBC2
:1064000000BF00BF00BF45F28370288069E704F138
:106410000809B9F8080080BB0020206284F8250034
:1064200000BF00BF00BFFAF7DFFB824600BFFAF7EC
:1064300010FC00BF4B480078401E4A4908700846CF
:106440000078D8B9FCF7C6FF4848008800280BDD63
:1064500000BFFAF7DFFB00BF5046FAF7C9FB00BFE9
:1064600000BFFDF766FC12E000BFFAF7D3FB00BFE8
:106470005046FAF7BDFB00BF09E00CE000BFFAF799
:10648000C9FB00BF5046FAF7B3FB00BF00BF00BF17
:106490000020288025E73448006890F8370094F8F9
:1064A0002410884219D030480068FDF77EF994F82E
:1064B00024002D49096881F837002B49096891F8B3
:1064C000370000F077F828480068FDF771FA264891
:1064D000006890F8370026490870D9F800008668EF
:1064E000266296F8370084F82400012084F82500FD
:1064F00000231A46314620460097FDF7B7FB00BF40
:1065000000BF00BFFAF770FB824600BFFAF7A1FB9D
:1065100000BF14480078401E1249087008460078F1
:1065200008B9FCF757FF00BFFAF774FB00BF5046ED
:10653000FAF75EFB00BF00BF00BF18F4004F01D1A7
:10654000FCF7C3FE0020288000BFCAE60021094AEC
:106550001160094A1180018070470000700000201E
:106560004D555458C0000020180100208400002020
:10657000A6000020A0000020A4000020002004E0CD
:1065800000211C4A42F82010401C0028F8D0704717
:1065900070B50025174C03E005F12000C5B2241D9D
:1065A00020680028F8D02068FAF729FB2844C5B2F3
:1065B000284670BD30B5420900F01F030121C3F128
:1065C0001F04A1400B4C54F822400C43094D45F8E0
:1065D000224030BD30B5420900F01F030121C3F154
:1065E0001F04A140034C54F822408C43014D45F850
:1065F000224030BD4C000020FCA1C161002141615E
:10660000FB49096811B90021816105E0F849096871
:106610008161F74909684861F549086070472DE9CB
:10662000F04104460F4616461D464FF00008F1485B
:106630000078002804DD42F6E1602880BDE8F081A2
:106640001CB945F6C3502880F8E71EB946F29450AD
:106650002880F3E700BF00BF00BFFAF7C5FA804605
:1066600000BFFAF7F6FA00BFE3480078401CE249A1
:10667000087008460078012801D1FCF769FE00BFC8
:10668000FAF7C8FA00BF4046FAF7B2FA00BF00BFF7
:1066900000BFDA4820606760314604F12000FFF750
:1066A00091F804F10800FDF74EFA2046FFF7A4FF29
:1066B000D3480088401CD249088000BF00BF00BFFB
:1066C000FAF792FA804600BFFAF7C3FA00BFCA4849
:1066D0000078401EC84908700846007808B9FCF7E1
:1066E00079FE00BFFAF796FA00BF4046FAF780FA43
:1066F00000BF00BF00BF0020288000BF9EE710B58C
:10670000044604F12000FFF73EF8BE482060BEA01A
:106710006060002104F12000FFF754F804F1080044
:10672000FDF711FA10BD426981693AB9B04B1960A1
:1067300009B100234B610023836109E019B90023EB
:106740009361436104E091614A6100238361436185
:1067500070472DE9FC5F05468846144600200090EE
:10676000A4480078002805DD43F2C92020800020DD
:10677000BDE8FC9F25B945F6C35020800020F7E70F
:10678000B8F1000F03D0B8F1010F02D100E000BF53
:1067900004E045F6256020800020E9E700BF974926
:1067A0002868884204D045F6C45020800020DFE7E6
:1067B00000BF00BFFAF718FA009000BFFAF749FAD5
:1067C00000BF05F10809B9F808603746B8F1000FB5
:1067D00003D0B8F1010F7BD124E0B7B92846FFF709
:1067E000A2FF87480088401E854908802846FFF799
:1067F00086FF00BFFAF70EFA00BF0098FAF7F8F923
:1068000000BF00BF002020800BE000BFFAF702FAB3
:1068100000BF0098FAF7ECF900BF00BF47F25F1025
:10682000208062E000BF74480078401C7249087004
:1068300008460078012801D1FCF78AFD00BFFAF76D
:10684000E9F900BF0098FAF7D3F900BF00BF00BF15
:1068500004F0E4FD01900AE0D9F800A0DAF808B0ED
:1068600059462846019AFDF795F9701E86B2002E0A
:10687000F2D12846FFF757FF61480088401E604963
:1068800008802846FFF73BFF00BF00BF00BFFAF7B4
:10689000ABF9009000BFFAF7DCF900BF564800786A
:1068A000401E554908700846007808B9FCF792FD6B
:1068B00000BFFAF7AFF900BF0098FAF799F900BFE7
:1068C00000BF00BFFCF701FD002020800DE0FFE7C6
:1068D00000BFFAF79FF900BF0098FAF789F900BFE7
:1068E00000BF45F62560208000BF00BF38463FE767
:1068F0002DE9F04105460C4600263E480078002868
:1069000005DD4FF46C5020800020BDE8F08125B9F2
:1069100045F6C35020800020F7E7384928688842B0
:1069200004D045F6C45020800020EEE700BF00BF31
:1069300000BFFAF759F9064600BFFAF78AF900BF17
:106940002D480078401C2C49087008460078012822
:1069500001D1FCF7FDFC00BFFAF75CF900BF30463F
:10696000FAF746F900BF00BF00BF05F12000FEF7AF
:106970000AFF074600BF00BF00BFFAF735F9064619
:1069800000BFFAF766F900BF1B480078401E1A499D
:10699000087008460078D0B9FCF71CFD1B48008839
:1069A00000280BDD00BFFAF735F900BF3046FAF7D3
:1069B0001FF900BF00BFFDF7BCF911E000BFFAF7F7
:1069C00029F900BF3046FAF713F900BF08E000BF0D
:1069D000FAF720F900BF3046FAF70AF900BF00BF06
:1069E00000BF0020208038468FE700002000000014
:1069F000AC00002070000020C0000020515545551B
:106A0000B00000204E4F4E453F5100008400002052
:106A10002DE9F04F89B00746894690461E46DDE9CC
:106A200012544FF0000BFE480078002806DD46F2B5
:106A3000AE102080002009B0BDE8F08F27B945F6E0
:106A4000C35020800020F6E726B946F2D5202080EA
:106A50000020F0E7B8F1000F03D0B8F5004F02D1E5
:106A600000E000BF04E045F6256020800020E2E75A
:106A700000BFEC493868884204D045F6C4502080F5
:106A80000020D8E70DB10020286000BF00BFFAF752
:106A9000ABF8834600BFFAF7DCF800BF23462A466E
:106AA000314607F12000FEF794FE8246208850B957
:106AB00000BFFAF7AFF800BF5846FAF799F800BFE1
:106AC00000BF5046B7E718F4004F0DD000BFFAF7EB
:106AD000A1F800BF5846FAF78BF800BF00BF46F296
:106AE000B01020800020A6E7CF48007800280DDDF8
:106AF00000BFFAF78FF800BF5846FAF779F800BFE1
:106B000000BF46F663502080002094E700BFC648CF
:106B10000078401CC449087008460078012801D15B
:106B2000FCF716FC00BFFAF775F800BF5846FAF7F5
:106B30005FF800BF00BF00BF4B460522394601A8E1
:106B4000FCF77AFE00BF00BF00BFFAF74DF883469E
:106B500000BFFAF77EF800BFB3480078401EB24984
:106B600008700846007808B9FCF734FC00BFFAF753
:106B700051F800BF5846FAF73BF800BF00BF00BF0E
:106B8000FCF7A3FB00BF00BFFAF72EF8834600BF57
:106B9000FAF75FF800BFA548006890F8350030B1FB
:106BA000012815D002282AD0032835D11DE09F489E
:106BB0000068D0F85CA09D480068B0F860003080A4
:106BC0001DB19A480068006C2860002020802BE0EE
:106BD0004FF0000A002030801DB194480068006C1E
:106BE000286046F2A91020801EE04FF0000A002025
:106BF000308005B1286047F2D920208014E04FF0A2
:106C0000000A002030801DB188480068006C2860B0
:106C100045F6C250208007E04FF0000A0020308087
:106C200046F62E60208000BF00BF00BFF9F7F2FFDC
:106C300000BF5846F9F7DCFF00BF00BF5046FAE638
:106C40002DE9F05F05460E4614464FF0000A7448E1
:106C50000078002805DD46F2AA1020800020BDE85B
:106C6000F09F25B945F6C35020800020F7E74EB1CC
:106C7000B6F5807F07D0B6F5004F05D0B6F5014FC9
:106C800004D102E000BF00BF00BF04E045F625606C
:106C900020800020E3E700BF62492868884204D0D2
:106CA00045F6C45020800020D9E700BF00BFF9F7A7
:106CB0009BFF824600BFF9F7CCFF00BF05F1080734
:106CC000388968B900BFF9F7A5FF00BF5046F9F74A
:106CD0008FFF00BF00BF46F2AB1020800020BEE750
:106CE00000BF51480078401C4F49087008460078A2
:106CF000012801D1FCF72CFB00BFF9F78BFF00BF87
:106D00005046F9F775FF00BF00BF00BF4FF0000805
:106D100004F084FB83460FE03868D0F808905A46A8
:106D200049462846FCF782FE08F101001FFA80F868
:106D3000B6F5807F00D002E038890028ECDC00BF87
:106D400000BF00BF00BFF9F74FFF824600BFF9F751
:106D500080FF00BF34480078401E33490870084661
:106D6000007808B9FCF736FB00BFF9F753FF00BF06
:106D70005046F9F73DFF00BF00BF00BF16F4004FBB
:106D800001D1FCF7A2FA00202080404667E72DE9F8
:106D9000F04F85B007468A4693461C460020029075
:106DA00000BF00BF00BFF9F71FFF029000BFF9F757
:106DB00050FF00BF1C480078401C1B490870084663
:106DC0000078012801D1FCF7C3FA00BFF9F722FFD0
:106DD00000BF0298F9F70CFF00BF00BF00BF07F12A
:106DE00008063089002854D114F0100F01D18046D4
:106DF00001E04FF01008DDE90E0143465A46CDE9A7
:106E00000001514607F12000FEF714FD00BF00BF4E
:106E100000BFF9F7E9FE029000BFF9F71AFF07E09B
:106E20007000002051554555C00000201801002079
:106E300000BF6A480078401E68490870084600781C
:106E4000D0B9FCF7C7FA6648008800280BDD00BF00
:106E5000F9F7E0FE00BF0298F9F7CAFE00BF00BFD5
:106E6000FCF767FF11E000BFF9F7D4FE00BF0298FE
:106E7000F9F7BEFE00BF08E000BFF9F7CBFE00BF88
:106E80000298F9F7B5FE00BF00BF00BF05B0BDE82E
:106E9000F08F14F4007F01D0358900E00125D6F889
:106EA000009011E0D9F808000390D9F8040004908C
:106EB0000E985B465246009038460399FCF7D6FE82
:106EC000DDF81090681E85B2002DEBD100BF00BF29
:106ED00000BFF9F789FE029000BFF9F7BAFE00BFC4
:106EE0003E480078401E3D4908700846007808B9C1
:106EF000FCF770FA00BFF9F78DFE00BF0298F9F7B2
:106F000077FE00BF00BF00BF14F4004F01D1FCF7B3
:106F1000DCF900210F98018000BFB7E72DE9FF479A
:106F20000546884691461F460C9C25B945F6C35038
:106F30002080BDE8FF87B7F5004F19D009DC9FB16D
:106F4000102F12D0B7F5007F10D0B7F5047F13D102
:106F50000DE0A7F5004010380BD0B0F5F87F09D050
:106F6000B0F5007F08D106E000BF00BF00BF00BF42
:106F700000BF00BF00BF03E045F625602080D8E7D2
:106F800000BF18492868884203D045F6C4502080C5
:106F9000CFE704F043FA06461348007800280BDDDB
:106FA00000204B4642462946CDE9017603940090E5
:106FB0000C48FEF74BF8BCE73B464A46414628469C
:106FC000CDE90064FFF7E3FE00BFB2E70021074A06
:106FD0001160074A1180018070470000C000002046
:106FE000840000205155455570000020AC00002061
:106FF000B0000020FEA1C16100214161FD49096886
:1070000011B90021816105E0FA4909688161F949F6
:1070100009684861F749086070472DE9F041044666
:107020000E4617461D464FF00008F348007800282A
:1070300004DD42F6E1602880BDE8F0811CB945F628
:10704000C3502880F8E700BF00BF00BFF9F7CCFDB0
:10705000804600BFF9F7FDFD00BFE8480078401CFE
:10706000E649087008460078012801D1FCF770F95C
:1070700000BFF9F7CFFD00BF4046F9F7B9FD00BFEB
:1070800000BF00BFDE4820602762002060626660AB
:1070900004F10800FCF757FD2046FFF7ABFFD94885
:1070A0000088401CD749088000BF00BF00BFF9F727
:1070B0009BFD804600BFF9F7CCFD00BFCF480078AC
:1070C000401ECE4908700846007808B9FCF782F9DE
:1070D00000BFF9F79FFD00BF4046F9F789FD00BFEB
:1070E00000BF00BF0020288000BFA5E710B5044600
:1070F000C5482060002020626062C4A0606004F186
:107100000800FCF720FD10BD426981693AB9B94B0E
:10711000196009B100234B610023836109E019B9AB
:1071200000239361436104E091614A61002383611C
:10713000436170472DE9FC5F0546884614460020F0
:107140000090AD480078002805DD43F2C92020807A
:107150000020BDE8FC9F25B945F6C35020800020E3
:10716000F7E7B8F1000F03D0B8F1010F02D100E04A
:1071700000BF04E045F6256020800020E9E700BF5D
:107180009F492868884204D045F6C45020800020DA
:10719000DFE700BF00BFF9F727FD009000BFF9F758
:1071A00058FD00BF05F10809B9F808603746B8F185
:1071B000000F03D0B8F1010F7BD124E0B7B9284606
:1071C000FFF7A2FF8F480088401E8E49088028469E
:1071D000FFF78CFF00BFF9F71DFD00BF0098F9F71E
:1071E00007FD00BF00BF002020800BE000BFF9F7C3
:1071F00011FD00BF0098F9F7FBFC00BF00BF47F28C
:107200005F10208062E000BF7C480078401C7B4912
:10721000087008460078012801D1FCF799F800BFF2
:10722000F9F7F8FC00BF0098F9F7E2FC00BF00BFD7
:1072300000BF04F0F3F801900AE0D9F800A0DAF8F2
:1072400008B059462846019AFCF7A4FC701E86B285
:10725000002EF2D12846FFF757FF6A480088401EEB
:10726000684908802846FFF741FF00BF00BF00BF04
:10727000F9F7BAFC009000BFF9F7EBFC00BF5F48DC
:107280000078401E5D4908700846007808B9FCF790
:10729000A1F800BFF9F7BEFC00BF0098F9F7A8FC01
:1072A00000BF00BF00BFFCF710F8002020800DE0F9
:1072B000FFE700BFF9F7AEFC00BF0098F9F798FCB4
:1072C00000BF00BF45F62560208000BF00BF3846E4
:1072D0003FE72DE9F04788B00646894690461C46B0
:1072E000109D4FF0000A44480078002806DD46F261
:1072F000AE102880002008B0BDE8F08726B945F61A
:10730000C35028800020F6E7B8F1000F03D0B8F58D
:10731000004F02D100E000BF04E045F62560288060
:107320000020E8E700BF36493068884204D045F6BF
:10733000C45028800020DEE70CB10020206000BF90
:1073400000BFF9F751FC824600BFF9F782FC00BF8D
:10735000306A98B1306A401E30620CB1706A2060A9
:10736000376A00BFF9F756FC00BF5046F9F740FCFA
:1073700000BF00BF002028803846BCE718F4004F4B
:107380000ED0376A00BFF9F745FC00BF5046F9F749
:107390002FFC00BF00BF46F2B01028803846AAE795
:1073A0001648007800280DDD00BFF9F733FC00BF58
:1073B0005046F9F71DFC00BF00BF46F66350288019
:1073C000002098E700BF0D480078401C0B4908706A
:1073D00008460078012801D1FBF7BAFF00BFF9F792
:1073E00019FC00BF5046F9F703FC00BF00BF11E0D5
:1073F00020000000CC00002070000020C000002011
:1074000053454D41D00000204E4F4E453F53454D12
:107410000000000000BF4B46062231466846FCF7DC
:107420000BFA00BF00BF00BFF9F7DEFB824600BFCA
:10743000F9F70FFC00BFF8480078401EF6490870C5
:107440000846007808B9FBF7C5FF00BFF9F7E2FB73
:1074500000BF5046F9F7CCFB00BF00BF00BFFBF7F1
:1074600034FF00BF00BFF9F7BFFB824600BFF9F74A
:10747000F0FB00BFE948006890F8350030B1012802
:107480000CD002281AD0032821D110E01CB1E34807
:107490000068006C20600020288026E01CB1DF48D6
:1074A0000068006C206046F2A91028801DE00CB135
:1074B0000020206047F2D920288016E01CB1D74870
:1074C0000068006C206045F6C25028800DE046F64A
:1074D0002E60288000BFF9F79DFB00BF5046F9F7EA
:1074E00087FB00BF00BF002005E700BF376A00BF71
:1074F000F9F790FB00BF5046F9F77AFB00BF00BFD9
:107500003846F8E62DE9F05F05460E4614464FF082
:10751000000AC3480078002805DD46F2AA10208042
:107520000020BDE8F09F25B945F6C350208000201B
:10753000F7E74EB1B6F5807F07D0B6F5004F05D01E
:10754000B6F5014F04D102E000BF00BF00BF04E068
:1075500045F6256020800020E3E700BFB149286898
:10756000884204D045F6C45020800020D9E700BFEF
:1075700000BFF9F739FB824600BFF9F76AFB00BF8D
:1075800005F10807388968B900BFF9F743FB00BF68
:107590005046F9F72DFB00BF00BF46F2AB1020802C
:1075A0000020BEE700BF9C480078401C9A49087044
:1075B00008460078012801D1FBF7CAFE00BFF9F7A1
:1075C00029FB00BF5046F9F713FB00BF00BF00BF07
:1075D0004FF0000803F022FF83460FE03868D0F830
:1075E00008905A4649462846FCF720FA08F101005F
:1075F0001FFA80F8B6F5807F00D002E038890028B5
:10760000ECDC00BF00BF00BF00BFF9F7EDFA824617
:1076100000BFF9F71EFB00BF7F480078401E7E497F
:1076200008700846007808B9FBF7D4FE00BFF9F7E8
:10763000F1FA00BF5046F9F7DBFA00BF00BF00BF08
:1076400016F4004F01D1FBF740FE00202080404699
:1076500067E72DE9FF5F0446884691461D460020F6
:10766000019000BF00BFF9F7BFFA019000BFF9F722
:10767000F0FA00BF04F108073889002857D1042028
:10768000012804D0022816D004283AD127E0206A25
:10769000FF280FD100BFF9F7BDFA00BF0198F9F735
:1076A000A7FA00BF00BF46F6C5502880002004B0EE
:1076B000BDE8F09F26E0206AA0F57F41FF390DD19B
:1076C00000BFF9F7A7FA00BF0198F9F791FA00BFD8
:1076D00000BF46F6C55028800020E8E712E0206A87
:1076E000401C0DD100BFF9F795FA00BF0198F9F7DA
:1076F0007FFA00BF00BF46F6C55028800020D6E7BD
:1077000000E000BF00BF206A401C2062D4F820A027
:10771000C4F8249000BFF9F77DFA00BF0198F9F78B
:1077200067FA00BF00BF002028805046BFE700BFB7
:1077300039480078401C384908700846007801280C
:1077400001D1FBF705FE00BFF9F764FA00BF01980D
:10775000F9F74EFA00BF00BF00BF18F4007F01D058
:107760003E8900E00126D7F800B011E0DBF8080000
:107770000290DBF80400039000231A46CDF8009035
:1077800020460299FCF772FADDF80CB0701E86B242
:10779000002EEBD1D4F820A000BF00BF00BFF9F746
:1077A00023FA019000BFF9F754FA00BF1A48007895
:1077B000401E194908700846007808B9FBF70AFE10
:1077C00000BFF9F727FA00BF0198F9F711FA00BFD7
:1077D00000BF00BF18F4004F01D1FBF776FD002079
:1077E0002880504663E72DE9FF4105460F461446C1
:1077F00035B945F6C3502080002004B0BDE8F081C3
:1078000097B1B7F5007F10D0B7F5004F0ED0B7F5A0
:10781000024F0DD10BE00000C00000201801002035
:107820007000002053454D4100BF00BF00BF04E081
:1078300045F6256020800020DFE700BF3649286834
:10784000884204D045F6C45020800020D5E703F0DC
:10785000E5FD06463148007800280CDD002003468F
:1078600002462946CDE90176039400902A48FDF7A7
:10787000EDFB0020C1E72346324639462846FFF794
:10788000E8FE80464046B8E72DE9F04104460E4642
:1078900015464FF0000821480078002804DD46F620
:1078A000C6502880BDE8F0811CB945F6C350288039
:1078B000F8E719492068884203D045F6C45028806B
:1078C000F0E70020288000BF00BFF9F78DF980465F
:1078D00000BFF9F7BEF900BF206A08B1266208E0D0
:1078E00004F10807388908B9266202E047F25F1000
:1078F000288000BFF9F78EF900BF4046F9F778F904
:1079000000BF00BF00BFCDE70021054A1160054A56
:10791000118001807047000053454D4170000020E8
:10792000CC000020D00000202DE9F04107464FF0A8
:10793000000800BF00BFF9F757F9804600BFF9F70C
:1079400088F900BF0020FD490860FD490880FD4915
:107950000880FD490860FD490860FD490860FD494F
:107960000860FD490860FD49088100BFF9F752F938
:1079700000BF4046F9F73CF900BF00BF00BF00BFA1
:10798000F9F732F9804600BFF9F763F900BFF44810
:10799000046800BFF9F73EF900BF4046F9F728F93F
:1079A00000BF00BF29E000BF00BFF9F71DF9804606
:1079B00000BFF9F74EF900BF002004F17804E0633E
:1079C000206420602063A061A082E0826062A062E7
:1079D00003F024FD2062A4F1780404F164064FF062
:1079E0000000B081D4F8C04000BFF9F713F900BF20
:1079F0004046F9F7FDF800BF00BF002CD3D100BF0F
:107A000000BFF9F7F1F8804600BFF9F722F900BF8F
:107A1000D448056800BFF9F7FDF800BF4046F9F704
:107A2000E7F800BF00BF16E000BF00BFF9F7DCF8C1
:107A3000804600BFF9F70DF900BF05F120060020D0
:107A4000B081AD6900BFF9F7E5F800BF4046F9F72E
:107A5000CFF800BF00BF002DE6D102F01BFD03F000
:107A600046FC00203880BDE8F081F8B504460026C9
:107A70006946BD4802F007FABDF8000018B1BDF82C
:107A800000002080F8BD6A460021022002F014FDAB
:107A9000BDF8000018B1BDF800002080F2E700BF7B
:107AA00000BFF9F7A1F8064600BFF9F7D2F800BF0A
:107AB0000020AE49086000BFF9F7ACF800BF3046BF
:107AC000F9F796F800BF00BF0025A9480068A9494A
:107AD0000968884205D9A6480068A6490968B0FB2C
:107AE000F1F525B9A24800680A21B0FBF1F56A4614
:107AF0000021284602F0E0FC69469B4801F055FB56
:107B0000BDF8000018B1BDF800002080BAE700BF42
:107B100000BFF9F769F8064600BFF9F79AF800BF09
:107B20000020894908609148006893490860012055
:107B30009249087000BFF9F76DF800BF3046F9F7B9
:107B400057F800BF00BF0020208000BF9AE786B032
:107B50000020009000BF06E086490968480001AA9D
:107B6000002102F0A9FC854800780128F4D101A881
:107B7000FFF7DAFE00277E4800687E4909688842E0
:107B800005D97B4800687B490968B0FBF1F727B944
:107B9000774800680A21B0FBF1F7C3E103F03EFC2F
:107BA0008246F9F773F96B49086000BF00BFF9F727
:107BB0001BF8009000BFF9F74CF800BF6B48006855
:107BC0006F49086000206949086000BFF9F722F892
:107BD00000BF0098F9F70CF800BF00BF66480068C6
:107BE00067490968884248D96348006865498842FE
:107BF00005D242F2107003900120029023E05E480B
:107C000000686149884205D24FF47A7003900A20D7
:107C1000029018E0584800685C49884203D264200A
:107C2000039002900FE0544800685949884205D2F9
:107C30000A2003904FF47A70029004E00120039030
:107C400042F2107002904C4801680298B1FBF0F9C2
:107C50004B49039809684843B0FBF9F042F21071B0
:107C6000081A4C490880374800880988884208DA91
:107C7000484800883349088003E042F210704549C3
:107C80000880FBF79CF8002500BF00BFF8F7ACFFA9
:107C9000009000BFF8F7DDFF00BF3148046800BF67
:107CA000F8F7B8FF00BF0098F8F7A2FF00BF00BFC9
:107CB000A6E000BF00BF00BFF8F796FF009000BF2E
:107CC000F8F7C7FF00BF34480078401C32490870FD
:107CD00008460078012801D1FBF73AFB00BFF8F70E
:107CE00099FF00BF0098F8F783FF00BF00BF00BFF7
:107CF00054F89C0F6060002044F89C0900BF00BF4E
:107D000000BFF8F771FF009000BFF8F7A2FF00BFB7
:107D100021480078401E2049087008460078F8BBCA
:107D2000FBF758FB1D48008800283FDD00BFF8F72F
:107D300071FF00BF0098F8F75BFF32E08C00002075
:107D400086000020D6000020E8000020FC00002073
:107D50000801002074000020B80000206086002088
:107D6000F0000020AC0000207C890020D80000201A
:107D700020B8000808B80008DC000020E40000205B
:107D8000E0000020801A060000093D00005A62024F
:107D90000084D717D4000020C000002084000020F9
:107DA0000DE000BF00BFFBF7C4FF11E000BFF8F714
:107DB00031FF00BF0098F8F71BFF00BF08E000BFCD
:107DC000F8F728FF00BF0098F8F712FF00BF00BFC8
:107DD00000BFD4F8A000054400BF00BFF8F704FFBF
:107DE000009000BFF8F735FF00BFD4F8C04000BFD7
:107DF000F8F710FF00BF0098F8F7FAFE00BF00BFC9
:107E0000002C7FF456AF45B36948854205D242F253
:107E1000107005904FF0010B1BE06648854205D2BB
:107E20004FF47A7005904FF00A0B12E062488542D9
:107E300003D26420059083460BE06048854204D25B
:107E40000A2005904FF47A7B03E00120059042F26E
:107E5000107BB5FBFBF0049003E0002005900120AF
:107E6000049000BF00BFF8F7BFFE009000BFF8F716
:107E7000F0FE00BF5248046800BFF8F7CBFE00BF19
:107E80000098F8F7B5FE00BF00BF2FE0D4F8A000BF
:107E9000059948430499B0FBF1F086B242F21070A4
:107EA000864200D90646A4F88C60B4F88E00B04231
:107EB00001DAA4F88E6001AB04F1AC02111D20467A
:107EC00001F0A5FE00BF00BFF8F78EFE009000BFD6
:107ED000F8F7BFFE00BFD4F8C04000BFF8F79AFE25
:107EE00000BF0098F8F784FE00BF00BF002CCDD182
:107EF00034480078012805D100203249087001A8D3
:107F0000FFF712FD03F08AFAA0EB0A082E4800687A
:107F1000404502D22C48C0F8008001AA0021384612
:107F200002F0CAFA3AE610B58AB0044600202749A2
:107F300008602749086027490860274908702149D7
:107F400008702648006820B946F62B6020800AB0E9
:107F500010BD2348006823490968884203D246F6C9
:107F60002C602080F3E7204800781F2803D346F6D2
:107F70002A602080EBE7032000210591CDE907046A
:107F80000691084616490968184A1268134B1B687F
:107F9000CDE90132CDE90310134800780023AFF298
:107FA000514213A10090174800F099F900BFCEE7A5
:107FB000801A060000093D00005A62020084D717AB
:107FC000F0000020D2000020E8000020D8000020AF
:107FD000E0000020DC000020E40000200CB80008D5
:107FE00014B800081CB8000804B8000810B800084D
:107FF00075432F4F532D49494920537461742054C0
:1080000061736B00EC8700202DE9F04104460D46BA
:1080100016464FF00008F8480078002804DD47F2C3
:1080200049103080BDE8F0811DB946F273203080E0
:10803000F8E71F2D03D346F273203080F2E7ACB986
:1080400000BF00BFF8F7D0FD804600BFF8F701FE83
:1080500000BFEA48046800BFF8F7DCFD00BF4046F7
:10806000F8F7C6FD00BF00BF012700E0002700BFF2
:1080700000BF00BFF8F7B8FD804600BFF8F7E9FD84
:1080800000BFDF480078401CDD49087008460078D2
:10809000012801D1FBF75CF900BFF8F7BBFD00BF79
:1080A0004046F8F7A5FD00BF00BF00BF94F83600BA
:1080B00008283AD2DFE800F004171C1D18191E1F0B
:1080C0002046FBF772FB84F8375094F83700FEF730
:1080D00071FA012F03D12046FBF74DFC02E0204648
:1080E000FBF766FC5CE000BF00BF84F8375057E048
:1080F00000BF00BF00BF94F83400082812D2DFE8A8
:1081000000F01106040A090B0C0500BF00BF84F83B
:10811000375008E000BF00BF00BF29462046FBF7EC
:10812000EFFC00E000BF00BF3AE000BF00BF00BFAF
:10813000F8F75AFD804600BFF8F78BFD00BFB04846
:108140000078401EAE49087008460078D0B9FBF7A9
:1081500041F9AC48008800280BDD00BFF8F75AFD54
:1081600000BF4046F8F744FD00BF00BFFBF7E1FD4C
:1081700011E000BFF8F74EFD00BF4046F8F738FDAC
:1081800000BF08E000BFF8F745FD00BF4046F8F724
:108190002FFD00BF00BF00BF46F62D60308041E7D5
:1081A00000BF00BF00BF00BFF8F71EFD804600BF44
:1081B000F8F74FFD00BF92480078401E90490870C4
:1081C0000846007808B9FBF705F900BFF8F722FD6B
:1081D00000BF4046F8F70CFD00BF00BF00BFFBF733
:1081E00074F80020308000BF1CE70021C0F8BC10EC
:1081F0008549096819B90021C0F8C01007E0824913
:108200000968C0F8C01080490968C1F8BC007E49FF
:108210000860704770B5044600202060A060606070
:10822000E06020616061A061E06178A020620020D0
:108230006062A062E0622063E0872064E065A4F8E9
:108240006000002104F16400FDF7BCFA002044F84E
:10825000740F6060E060A0822061A4F174040546A0
:1082600006E0002104F17C0040F82510681CC5B22E
:10827000002DF6D0002004F13404206120676067EF
:10828000606084F85600E067A06720814FF00040EE
:1082900060614FF00000A061E06120626062A4F8BC
:1082A0005800A4F85A00E065206603F0B7F80646C7
:1082B00066660020A066C4F88000C4F884002070C0
:1082C0006070A0702020E0700020C4F88800C4F81E
:1082D0008C0050A0C4F89000A4F1340470BD2DE9C6
:1082E000FF4F87B004469046DDE91BA5DDE91496F3
:1082F000179F0020039040480078002805DD47F2D2
:108300004A1028800BB0BDE8F08F1CB947F2AD10C1
:108310002880F7E7B8F1000F03D147F24F1028800B
:10832000F0E71EB946F62F602880EBE73A48006870
:10833000874203D246F630602880E3E71698B842B9
:1083400003D346F631602880DCE7B9F1200F03D370
:1083500046F273202880D5E7B9F1000F06D12F48E7
:10836000844203D046F273202880CBE7B9F11F0F77
:1083700006D12B48844203D046F273202880C1E7FF
:108380002046FFF747FF002028801AF0010F11D088
:108390001AF0020F0ED00596069008E0002105980D
:1083A00001600598001D05900698401C06900698EF
:1083B000B842F3D3169806EB80000490CDE9007A1A
:1083C00032464046049B0A99FAF71FFD0590C4F80F
:1083D00028800A98E0620898206284F8379005980F
:1083E00020600498A060199860651998E0B90D485C
:1083F0000068A0651AE0000070000020180100204D
:10840000C000002084000020F00000203F54617371
:108410006B000000200000001CB8000898850020B8
:10842000D0840020C40000201998A0651A986060CC
:108430006662A763A4F83CA04FF0000B08E000219F
:1084400004F17C0040F82B100BF1010000F0FF0B51
:10845000BBF1000FF3D004F164001899FDF7B2F9F5
:108460002046FAF7B4FC00BF00BF00BFF8F7BCFB22
:10847000039000BFF8F7EDFB00BFFE480078401CFA
:10848000FC49087008460078012801D1FAF760FF1E
:1084900000BFF8F7BFFB00BF0398F8F7A9FB00BFC8
:1084A00000BF00BF94F83700FEF784F82046FBF7C2
:1084B0007FFA2046FFF799FEEF480088401CEE49FE
:1084C0000880EE480078012837D000BF00BF00BF09
:1084D000F8F78AFB039000BFF8F7BBFB00BFE54845
:1084E0000078401EE349087008460078D0B9FAF7D2
:1084F00071FFE348008800280BDD00BFF8F78AFB16
:1085000000BF0398F8F774FB00BF00BFFBF711FC36
:1085100011E000BFF8F77EFB00BF0398F8F768FB97
:1085200000BF08E000BFF8F775FB00BF0398F8F73D
:108530005FFB00BF00BF00BFE4E600BF00BF00BF9D
:10854000F8F752FB039000BFF8F783FB00BFC94860
:108550000078401EC74908700846007808B9FAF745
:1085600039FF00BFF8F756FB00BF0398F8F740FB50
:1085700000BF00BF00BFFAF7A8FE00BFC2E6D0F8F8
:10858000BC20D0F8C0104AB9BE4B196011B100230D
:10859000C1F8BC300023C0F8C0300FE029B9002377
:1085A000C2F8C030C0F8BC3008E0C2F8C010C1F852
:1085B000BC200023C0F8C030C0F8BC30704770B594
:1085C00004460D460026B0480078002803DD47F237
:1085D0004E10288070BDAD48844203D147F24C1044
:1085E0002880F7E7AA48844203D147F24D1028803B
:1085F000F0E79CB900BF00BFF8F7F6FA064600BFE7
:10860000F8F727FB00BFA348046800BFF8F702FB98
:1086100000BF3046F8F7ECFA00BF00BF00BF00BF54
:1086200000BFF8F7E1FA064600BFF8F712FB00BFFB
:1086300090480078401C8F4908700846007801284F
:1086400001D1FAF785FE00BFF8F7E4FA00BF304623
:10865000F8F7CEFA00BF00BF00BF94F83600082834
:108660002DD2DFE800F004090E10080A0F11204691
:10867000FBF79BF85EE05DE000BF204601F084FC64
:1086800058E000BF00BF00BF204601F07DFC94F819
:108690003400082810D2DFE800F004070508090AB2
:1086A0000B0600BF00BF08E000BF00BF00BF00BF57
:1086B0002046FBF736F900E000BF00BF3AE000BFFC
:1086C00000BF00BFF8F790FA064600BFF8F7C1FAFE
:1086D00000BF68480078401E664908700846007868
:1086E000D0B9FAF777FE6648008800280BDD00BF96
:1086F000F8F790FA00BF3046F8F77AFA00BF00BFEB
:10870000FBF717FB11E000BFF8F784FA00BF304613
:10871000F8F76EFA00BF08E000BFF8F77BFA00BF79
:108720003046F8F765FA00BF00BF00BF46F62D607F
:1087300028804FE700BF04F16400FDF724F82046CD
:10874000FAF74FFB2046FFF71AFF4B480088401E00
:10875000494908802046FFF75DFDFF2084F8360078
:1087600000BF00BF00BFF8F73FFA064600BFF8F7AA
:1087700070FA00BF3F480078401E3E490870084626
:10878000007808B9FAF726FE00BFF8F743FA00BFF1
:108790003046F8F72DFA00BF00BF00BF0020288048
:1087A000FAF793FD00BF15E72DE9F04104460D46A9
:1087B000002635480078002805DD4FF46C502880ED
:1087C0000020BDE8F0819CB900BF00BFF8F70CFAAB
:1087D000064600BFF8F73DFA00BF2E48046800BF08
:1087E000F8F718FA00BF3046F8F702FA00BF00BFEA
:1087F00000BF00BF00BFF8F7F7F9064600BFF8F763
:1088000028FA00BF1B480078401C1A490870084627
:108810000078012801D1FAF79BFD00BFF8F7FAF9BB
:1088200000BF3046F8F7E4F900BF00BF00BF04F115
:108830006400FCF7A8FF074600BF00BF00BFF8F7C1
:10884000D3F9064600BFF8F704FA00BF09480078DC
:10885000401E084908700846007868BBFAF7BAFD60
:108860000748008800281EDD00BFF8F7D3F900BFD5
:10887000304611E0C0000020F40000207800002005
:1088800084000020F000002070000020D084002030
:108890009885002018010020F8F7AAF900BF00BF52
:1088A000FBF747FA11E000BFF8F7B4F900BF304614
:1088B000F8F79EF900BF08E000BFF8F7ABF900BF7A
:1088C0003046F8F795F900BF00BF00BF00202880B0
:1088D000384676E72DE9F05F80460F4616461C467F
:1088E0000A9D4FF0000BFE480078002805DD46F297
:1088F000AE1028800020BDE8F09F26B946F2D520B2
:1089000028800020F7E71FB1B7F5004F02D100E043
:1089100000BF04E045F6256028800020EBE700BF9B
:108920000CB10020206000BF00BFF8F75DF983465E
:1089300000BFF8F78EF900BFEA48006800F164094B
:108940002B46224631464846FCF743FF824628889C
:1089500000BBA4B102F062FD2168401AE149096838
:108960004867E0480068806FDE490968496F8842BF
:1089700005D2DC480068406FDA490968886700BFA3
:10898000F8F748F900BF5846F8F732F900BF00BFC2
:108990005046B0E717F4004F0DD046F2B0102880D3
:1089A00000BFF8F737F900BF5846F8F721F900BFC4
:1089B00000BF00209FE7CC48007800280DDD00BFF5
:1089C000F8F728F900BF5846F8F712F900BF00BFC2
:1089D00046F66350288000208DE700BFC24800782B
:1089E000401CC149087008460078012801D1FAF7F7
:1089F000AFFC00BFF8F70EF900BF5846F8F7F8F8DB
:108A000000BF00BF00BF4346022200210846FAF71C
:108A100013FF00BF00BF00BFF8F7E6F8834600BFB2
:108A2000F8F717F900BFB0480078401EAE4908704B
:108A30000846007808B9FAF7CDFC00BFF8F7EAF865
:108A400000BF5846F8F7D4F800BF00BF00BFFAF7E0
:108A50003CFC00BF00BFF8F7C7F8834600BFF8F73B
:108A6000F8F800BF9F48006890F8350020B1012851
:108A70002AD0032832D132E09A480068D0F85CA0AE
:108A800098480068B0F860003080D4B1954800681C
:108A9000006C206002F0C2FC92490968096C401A1F
:108AA0009049096848678F480068806F8D49096858
:108AB000496F884205D28B480068406F8949096830
:108AC00088670020288017E04FF0000A00203080DF
:108AD00004B1206046F2A91028800DE000BF4FF0DD
:108AE000000A002030801CB17E480068006C2060C5
:108AF00047F2D920288000BF00BF00BFF8F78AF8EE
:108B000000BF5846F8F774F800BF00BF5046F2E6C1
:108B10002DE9F04105460E461446002770480078BE
:108B2000002805DD46F2AA1020800020BDE8F08173
:108B30001EB1B6F5004F02D100E000BF04E045F6DB
:108B4000256020800020F1E700BF00BF00BFF8F7DC
:108B50004BF8074600BFF8F77CF800BF1DB161482D
:108B6000006885420DD100BFF8F754F800BF3846C1
:108B7000F8F73EF800BF00BF46F2AC10208000209E
:108B8000D4E795F8340002280DD000BFF8F742F87A
:108B900000BF3846F8F72CF800BF00BF46F2AB1014
:108BA00020800020C2E700BF4F480078401C4E499B
:108BB000087008460078012801D1FAF7C9FB00BF08
:108BC000F8F728F800BF3846F8F712F800BF00BFE2
:108BD00000BF02F023FC8046424629460020FAF7F7
:108BE00025FF00BF00BF00BFF7F7FEFF074600BF2D
:108BF000F8F72FF800BF3C480078401E3A4908704B
:108C00000846007808B9FAF7E5FB00BFF8F702F864
:108C100000BF3846F7F7ECFF00BF00BF00BF16F4F7
:108C2000004F01D1FAF751FB0020208001207DE7A1
:108C30002DE9FC4704460F4690469946DDE90A6552
:108C40004FF0000A00BF00BF00BFF7F7CDFF82461C
:108C500000BFF7F7FEFF00BF23480078401C224901
:108C6000087008460078012801D1FAF771FB00BFAF
:108C7000F7F7D0FF00BF5046F7F7BAFF00BF00BFBD
:108C800000BF0CB9174804680020288094F836000B
:108C900008287DD2DFE800F0040550510607525342
:108CA00000BF00BF00BF4B464246394604F1640096
:108CB000CDE90065FCF7BEFD00BF00BF00BFF7F7C0
:108CC00093FF824600BFF7F7C4FF00BF0648007855
:108CD000401E054908700846007810BB06E00000F9
:108CE0007000002018010020C0000020FAF772FB7D
:108CF000FE48008800280BDD00BFF7F78BFF00BFA0
:108D00005046F7F775FF00BF00BFFBF712F811E000
:108D100000BFF7F77FFF00BF5046F7F769FF00BFBE
:108D200008E000BFF7F776FF00BF5046F7F760FF97
:108D300000BF00BF00BFAFE000BF00BF00BF94F89E
:108D4000340002282CD143463A46214600200096A2
:108D5000FAF78CFF00BF00BF00BFF7F745FF824660
:108D600000BFF7F776FF00BFE1480078401EE049FA
:108D700008700846007808B9FAF72CFB00BFF7F72F
:108D800049FF00BF5046F7F733FF00BF00BF00E0C8
:108D900047E000BF19F4004F42D1FAF796FA3FE0DE
:108DA0004B464246394604F16400CDE90065FCF7C4
:108DB00041FD00BF00BF00BFF7F716FF824600BFAE
:108DC000F7F747FF00BFCA480078401EC84908703F
:108DD00008460078D0B9FAF7FDFAC44800880028A0
:108DE0000BDD00BFF7F716FF00BF5046F7F700FF97
:108DF00000BF00BFFAF79DFF11E000BFF7F70AFFC1
:108E000000BF5046F7F7F4FE00BF08E000BFF7F7D9
:108E100001FF00BF5046F7F7EBFE00BF00BF00BFE9
:108E20003AE000BF00BF00BFF7F7DEFE824600BF9A
:108E3000F7F70FFF00BFAE480078401EAC4908703E
:108E400008460078D0B9FAF7C5FAA8480088002883
:108E50000BDD00BFF7F7DEFE00BF5046F7F7C8FE98
:108E600000BF00BFFAF765FF11E000BFF7F7D2FEC1
:108E700000BF5046F7F7BCFE00BF08E000BFF7F7A1
:108E8000C9FE00BF5046F7F7B3FE00BF00BF00BFEA
:108E900046F62D60288000BF00BFBDE8FC872DE9A5
:108EA000FF470746884691461D460C9E4DB1102D42
:108EB00008D0B5F5004F06D0A5F50040103804D114
:108EC00002E000BF00BF00BF04E045F6256030802F
:108ED000BDE8FF8700BF02F0A1FA0446854800788C
:108EE00000280BDD00204B4642463946CDE90246BC
:108EF000CDE900058048FCF7A9F8E9E72B464A468A
:108F000041463846CDE90046FFF792FE00BFDFE755
:108F10002DE9F04104460D4616464FF000082DB1EC
:108F200046F6791030800020BDE8F08100BF00BF18
:108F3000F7F75AFE804600BFF7F78BFE00BF0CB96B
:108F40006E48046804F17C0050F8257000BFF7F704
:108F500061FE00BF4046F7F74BFE00BF00BF002098
:108F600030803846E0E770B50446002600BF00BFF9
:108F7000F7F73AFE064600BFF7F76BFE00BF604802
:108F8000007868B145F6DA10208000BFF7F742FE9E
:108F900000BF3046F7F72CFE00BF00BF012070BDB8
:108FA000574805780078401C5549087000BFF7F70E
:108FB00031FE00BF3046F7F71BFE00BF00BF0020A8
:108FC00020802846EBE72DE9F04104460D46174680
:108FD0001E464FF0000825B146F679103080BDE8F6
:108FE000F08100BF00BFF7F7FFFD804600BFF7F735
:108FF00030FE00BF0CB94148046804F17C0040F821
:10900000257000BFF7F706FE00BF4046F7F7F0FDFA
:1090100000BF00BF0020308000BFE0E770B504460D
:109020000D46002600BF00BFF7F7DEFD064600BF75
:10903000F7F70FFE00BF0020288094F836000828BC
:1090400078D2DFE800F0040506071463788C00BFCF
:1090500000BF00BF00BFF7F7DDFD00BF3046F7F7E8
:10906000C7FD00BF00BF47F25310288098E000BF43
:109070001F480078401C1E490870084600780128E7
:1090800001D1FAF765F900BFF7F7C4FD00BF30461C
:10909000F7F7AEFD00BF00BF00BF14F88A0F401EF7
:1090A000207014F88A0928B9002084F83600204678
:1090B000FAF7AEFC00BF00BF00BFF7F795FD06460C
:1090C00000BFF7F7C6FD00BF09480078401E0849F9
:1090D00008700846007808B9FAF77CF900BFF7F77E
:1090E00099FD00BF3046F7F783FD0BE084000020B8
:1090F000C000002070000020544D5347180100208C
:10910000F600002000BF00BF00BF49E014F88A0F3E
:10911000401E207014F88A0910B9012084F8360026
:1091200000BFF7F777FD00BF3046F7F761FD00BFDE
:1091300000BF35E027E014F88A0F401E207014F8B5
:109140008A0910B9022084F8360000BFF7F762FDE3
:1091500000BF3046F7F74CFD00BF00BF20E014F819
:109160008A0F401E207014F88A0910B9032084F871
:10917000360000BFF7F74EFD00BF3046F7F738FD69
:1091800000BF00BF0CE000BFF7F744FD00BF304652
:10919000F7F72EFD00BF00BF46F62D60288070BD9A
:1091A00000BFFAF792F800BFF9E77FB504460D4615
:1091B000002600BF00BFF7F717FD064600BFF7F710
:1091C00048FD00BF1CB1F948006884420CD100BFC3
:1091D000F7F720FD00BF3046F7F70AFD00BF00BFDC
:1091E00047F2571028807FBD00BFF7F713FD00BF7F
:1091F0003046F7F7FDFC00BF00BFED4800780028BF
:109200000BDD002000900190034602462146CDE987
:109210000205E848FBF71AFFE5E729462046FFF775
:10922000FDFE00BFDFE72DE9F04780460E461446FD
:109230001D464FF00009DE480078002805DD46F2A3
:10924000AE1028800020BDE8F0871EB1B6F5004FB3
:1092500002D100E000BF04E045F625602880002030
:10926000F1E700BF0CB10020206000BF00BFF7F79E
:10927000BBFC814600BFF7F7ECFC00BFCB480068A1
:10928000406CB8B3C9480068406C401EC7490968C3
:109290004864C6480068476C1CB1C4480068006C4C
:1092A000206002F0BBF8C1490968096C401ABF4947
:1092B0000968C1F8A400BD480068D0F8A800BB49FF
:1092C0000968D1F8A410884207D2B8480068D0F8DD
:1092D000A400B6490968C1F8A80000BFF7F79AFCD6
:1092E00000BF4846F7F784FC00BF00BF002028807D
:1092F0003846A8E7FFE716F4004F0DD000BFF7F798
:1093000089FC00BF4846F7F773FC00BF00BF46F278
:10931000B0102880002096E7A748007800280DDDCF
:1093200000BFF7F777FC00BF4846F7F761FC00BFC6
:1093300000BF46F663502880002084E700BF9E48A7
:109340000078401C9C49087008460078012801D12B
:10935000F9F7FEFF00BFF7F75DFC00BF4846F7F7DF
:1093600047FC00BF00BF00BF43460722002108465C
:10937000FAF762FA00BF00BF00BFF7F735FC81467D
:1093800000BFF7F766FC00BF8B480078401E8A4993
:1093900008700846007808B9FAF71CF800BFF7F71C
:1093A00039FC00BF4846F7F723FC00BF00BF00BFF1
:1093B000F9F78BFF00BF00BFF7F716FC814600BF2F
:1093C000F7F747FC00BF7948006890F8350020B1F6
:1093D000012826D0032834D12CE0FCB17348006862
:1093E000006C206002F01AF870490968096C401A94
:1093F0006E490968C1F8A4006C480068D0F8A8005C
:109400006A490968D1F8A410884207D26748006801
:10941000D0F8A40065490968C1F8A8000020288098
:1094200013E01CB161480068006C206046F2A9108E
:1094300028800AE00CB10020206047F2D920288063
:1094400003E046F62E60288000BF00BF5748006842
:10945000476C00BFF7F7DEFB00BF4846F7F7C8FBD5
:1094600000BF00BF3846EEE62DE9F04105460E4646
:10947000144600274E480078002805DD46F2AA1061
:1094800020800020BDE8F0811EB1B6F5004F02D16A
:1094900000E000BF04E045F6256020800020F1E7F1
:1094A00000BF00BF00BFF7F79FFB074600BFF7F7FD
:1094B000D0FB00BF1DB13D48006885420DD100BF03
:1094C000F7F7A8FB00BF3846F7F792FB00BF00BFD5
:1094D00046F2AC1020800020D4E795F8340007282D
:1094E0000DD000BFF7F796FB00BF3846F7F780FBBB
:1094F00000BF00BF46F2AB1020800020C2E700BFD3
:10950000F7F788FB00BF3846F7F772FB00BF00BFD4
:1095100000BF00BF00BFF7F767FB074600BFF7F7C4
:1095200098FB00BF24480078401C23490870084677
:109530000078012801D1F9F70BFF00BFF7F76AFBAC
:1095400000BF3846F7F754FB00BF00BF00BF01F073
:1095500065FF8046424629460020FAF767FA00BFB9
:1095600000BF00BFF7F740FB074600BFF7F771FBEE
:1095700000BF11480078401E0F4908700846007867
:1095800008B9F9F727FF00BFF7F744FB00BF3846DB
:10959000F7F72EFB00BF00BF00BF16F4004F01D14C
:1095A000F9F793FE0020208001206BE718010020CE
:1095B0007000002054524553C00000202DE9F843AC
:1095C0000446884617461D464FF0000900BF00BFFD
:1095D00000BFF7F709FB814600BFF7F73AFB00BF72
:1095E000FA480078401CF9490870084600780128BC
:1095F00001D1F9F7ADFE00BFF7F70CFB00BF4846FD
:10960000F7F7F6FA00BF00BF00BF0CB9F0480468D6
:1096100027640020288094F8360008287AD2DFE8F2
:1096200000F00405FEFD0607FCFB00BF00BF00BF05
:109630000420012804D0022843D004286BD184E000
:10964000606CFF283CD100BF00BF00BFF7F7CCFA29
:10965000814600BFF7F7FDFA00BFDC480078401EE6
:10966000DA49087008460078D0B9F9F7B3FED9484E
:10967000008800280BDD00BFF7F7CCFA00BF484692
:10968000F7F7B6FA00BF00BFFAF753FB11E000BFCF
:10969000F7F7C0FA00BF4846F7F7AAFA00BF08E09C
:1096A00000BFF7F7B7FA00BF4846F7F7A1FA00BFC7
:1096B00000BF00BF46F6C55028800020BDE8F883F3
:1096C00084E0606CA0F57F41FF393DD100BF00BF51
:1096D00000BFF7F789FA814600BFF7F7BAFA00BF73
:1096E000BA480078401EB949087008460078E0B9C9
:1096F000F9F770FEB748008800280DDD00BFF7F7C6
:1097000089FA00BF4846F7F773FA00BF00BFFAF7BF
:1097100010FB13E0DFE158E000BFF7F77BFA00BF72
:109720004846F7F765FA00BF08E000BFF7F772FA9E
:1097300000BF4846F7F75CFA00BF00BF00BF46F61F
:10974000C55028800020B9E740E0606C401C3BD148
:1097500000BF00BF00BFF7F747FA814600BFF7F729
:1097600078FA00BF99480078401E9849087008466A
:109770000078D0B9F9F72EFE9648008800280BDD56
:1097800000BFF7F747FA00BF4846F7F731FA00BFC6
:1097900000BFFAF7CEFA11E000BFF7F73BFA00BFBF
:1097A0004846F7F725FA00BF08E000BFF7F732FA9E
:1097B00000BF4846F7F71CFA00BF00BF00BF46F6DF
:1097C000C5502880002079E700E000BF00BF606C32
:1097D000401C6064666C00BF00BF00BFF7F704FA6E
:1097E000814600BFF7F735FA00BF78480078401E81
:1097F0007649087008460078F8B9F9F7EBFD754826
:109800000088002810DD00BFF7F704FA00BF4846C3
:10981000F7F7EEF900BF03E01DE01BE019E017E0E9
:1098200000BFFAF786FA11E000BFF7F7F3F900BFBF
:109830004846F7F7DDF900BF08E000BFF7F7EAF99F
:1098400000BF4846F7F7D4F900BF00BF00BF7EE174
:1098500000BF00BF00BF94F8340007282BD10023BD
:109860001A46214618460097FAF700FA666C00BFC0
:1098700000BF00BFF7F7B8F9814600BFF7F7E9F975
:1098800000BF52480078401E5049087008460078D2
:1098900008B9F9F79FFD00BFF7F7BCF900BF4846CC
:1098A000F7F7A6F900BF00BF00BF18F4004F01D1C1
:1098B000F9F70BFD0EE10420012804D0022842D064
:1098C000042872D189E0606CFF283BD100BF00BF43
:1098D00000BFF7F789F9814600BFF7F7BAF900BF73
:1098E0003A480078401E3949087008460078D0B9D7
:1098F000F9F770FD3748008800280BDD00BFF7F747
:1099000089F900BF4846F7F773F900BF00BFFAF7BF
:1099100010FA11E000BFF7F77DF900BF4846F7F7EE
:1099200067F900BF08E000BFF7F774F900BF4846C9
:10993000F7F75EF900BF00BF00BF46F6C5502880AC
:109940000020BBE68AE0606CA0F57F41FF3943D17F
:1099500000BF00BF00BFF7F747F9814600BFF7F728
:1099600078F900BF19480078401E18490870084669
:109970000078D8B9F9F72EFD1648008800280BDDCD
:1099800000BFF7F747F900BF4846F7F731F900BFC6
:1099900000BFFAF7CEF912E000BFF7F73BF900BFBE
:1099A0004846F7F725F900BF09E056E000BFF7F792
:1099B00031F900BF4846F7F71BF900BF00BF00BFF1
:1099C00046F6C5502880002078E60000C000002040
:1099D000180100208400002040E0606C401C3BD156
:1099E00000BF00BF00BFF7F7FFF8814600BFF7F7E1
:1099F00030F900BFFC480078401EFB49087008465B
:109A00000078D0B9F9F7E6FCF848008800280BDDAB
:109A100000BFF7F7FFF800BF4846F7F7E9F800BFC7
:109A200000BFFAF786F911E000BFF7F7F3F800BFBF
:109A30004846F7F7DDF800BF08E000BFF7F7EAF89F
:109A400000BF4846F7F7D4F800BF00BF00BF46F696
:109A5000C5502880002031E600E000BF00BF606CE8
:109A6000401C6064666C00BF00BF00BFF7F7BCF825
:109A7000814600BFF7F7EDF800BFDB480078401ED5
:109A8000D949087008460078D0B9F9F7A3FCD7483F
:109A9000008800280BDD00BFF7F7BCF800BF484680
:109AA000F7F7A6F800BF00BFFAF743F911E000BFCF
:109AB000F7F7B0F800BF4846F7F79AF800BF08E09C
:109AC00000BFF7F7A7F800BF4846F7F791F800BFC7
:109AD00000BF00BF3BE000BF00BF00BFF7F784F846
:109AE000814600BFF7F7B5F800BFBF480078401EB9
:109AF000BD49087008460078D0B9F9F76BFCBB483F
:109B0000008800280BDD00BFF7F784F800BF484647
:109B1000F7F76EF800BF00BFFAF70BF911E000BFCE
:109B2000F7F778F800BF4846F7F762F800BF08E09B
:109B300000BFF7F76FF800BF4846F7F759F800BFC6
:109B400000BF00BF46F62D602880002600BF00BF82
:109B50003046B3E52DE9FF4106460F4614461FB1D6
:109B6000B7F5004F02D100E000BF06E045F62560E2
:109B70002080002004B0BDE8F08100BF01F04EFC61
:109B800005469B48007800280CDD00200090034625
:109B900002463146CDE9025401909648FBF756FA49
:109BA0000020E7E723462A4639463046FFF706FD00
:109BB00080464046DEE72DE9F04104460F46154653
:109BC0004FF000088A480078002805DD46F6C650A8
:109BD00028800020BDE8F08100BF00BFF7F704F83F
:109BE000804600BFF7F735F800BF0CB9824804681B
:109BF000666C676400BFF7F70DF800BF4046F6F7E4
:109C0000F7FF00BF00BF002028803046E2E72DE9C3
:109C1000F04705460E4617461C464FF0000A7448AA
:109C20000078002804DD47F259102080BDE8F08755
:109C30001EB946F2D5202080F8E71FB946F2D5209C
:109C40002080F3E700BF00BFF6F7CEFF824600BFDB
:109C5000F6F7FFFF00BF0DB967480568286878B9B7
:109C600000BFF6F7D7FF00BF5046F6F7C1FF00BFB1
:109C700000BF00203060386047F252102080D5E7E6
:109C800095F83C0010F0010F0FD100BFF6F7C2FFAE
:109C900000BF5046F6F7ACFF00BF00BF00203060A9
:109CA000386047F254102080C0E700BFF6F7B2FFDB
:109CB00000BF5046F6F79CFF00BF00BF4FF0000802
:109CC000D5F8249003E009F1040908F10108D9F856
:109CD00000000028F7D0C6F80080A86BA0EB0800B1
:109CE00038600020208000BFA0E770B504460D4614
:109CF000002600BF00BFF6F777FF064600BFF6F765
:109D0000A8FF00BF0CB93C4804683B480068844287
:109D100010D13548007800280CDD00BFF6F77AFF37
:109D200000BF3046F6F764FF00BF00BF46F6635041
:109D3000288070BD0020288094F8360008287DD245
:109D4000DFE800F004425C6C7D7E7F8000BF264827
:109D50000078401C2449087008460078012801D189
:109D6000F9F7F6FA00BFF6F755FF00BF3046F6F7F1
:109D70003FFF00BF00BF00BF042084F83600012071
:109D800084F88A002046F9F710FD00BF00BF00BF2D
:109D9000F6F72AFF064600BFF6F75BFF00BF124842
:109DA0000078401E104908700846007808B9F9F795
:109DB00011FB00BFF6F72EFF00BF3046F6F718FF85
:109DC00000BF00BF00BF59E0052084F83600012025
:109DD00084F88A0000BFF6F71DFF00BF3046F6F793
:109DE00007FF00BF00BF49E0C00000208400002042
:109DF000700000205453494718010020062084F8C1
:109E00003600012084F88A0000BFF6F703FF00BF88
:109E10003046F6F7EDFE00BF00BF2FE0072084F8C4
:109E20003600012084F88A0000BFF6F7F3FE00BF79
:109E30003046F6F7DDFE00BF00BF1FE011E000BFB7
:109E400000BF00BF94F88A00401C84F88A0000BF5D
:109E5000F6F7E0FE00BF3046F6F7CAFE00BF00BFCF
:109E60000CE000BFF6F7D6FE00BF3046F6F7C0FEA6
:109E700000BF00BF46F62D6028805AE700BFF9F703
:109E800024FA00BF55E77FB505460C4635488542A4
:109E900003D147F25B1020807FBD3348854203D158
:109EA00047F25C102080F7E73048007800280BDD8F
:109EB000002000900190034602462946CDE90204A5
:109EC0002B48FBF7C3F8E7E721462846FFF70DFFCD
:109ED00000BFE1E72DE9F04104460D461646002794
:109EE00022480078002804DD46F6C6503080BDE8E0
:109EF000F08100BF00BFF6F777FE074600BFF6F718
:109F0000A8FE00BF0CB91B4804681DB91A480068B8
:109F1000606500E06565D4E91501884201D9606D8E
:109F2000A06500BFF6F776FE00BF3846F6F760FE84
:109F300000BF00BF0020308000BFD8E700210F4ADB
:109F400011600F4A11800F4A11600180704708B5F7
:109F500008480068F8F74FFF69460020FEF72FFB1E
:109F600008BD0000D08400209885002070000020EB
:109F70005453555318010020C4000020F000002065
:109F8000F4000020EC00002010B5C269BAB1002432
:109F900004651468844205D14169116039B1002417
:109FA0008C6104E0816943694B6103B199610024CC
:109FB00044618461C461C4649488641E948010BD4B
:109FC0002DE9F05F4FF0000B00BF00BF00BFF6F7B8
:109FD0000BFE834600BFF6F73CFE00BFFE4800784C
:109FE000401CFD49087008460078012801D1F9F7A6
:109FF000AFF900BFF6F70EFE00BF5846F6F7F8FDC2
:10A0000000BF00BF00BF01F009FA0546F348006831
:10A01000401CF249086008460068F1490988B0FB15
:10A02000F1F201FB12001FFA80FAEE4800EBCA08B9
:10A03000D8F80040002788E0002C7DD0D4F8149098
:10A0400094F8360008287BD2DFE800F00408051BEE
:10A050000640075300BF00BF00BF72E0DF49E06C5D
:10A060000968401A2065DD49E06C0968884206D11C
:10A07000002084F836002046F9F7CAFC00E00127EA
:10A080005FE0D649E06C0968401A2065D349E06C6E
:10A090000968884218D10020E065A4F8600001F04A
:10A0A000BDF920642046F9F73CFC2046F9F7B0FCE6
:10A0B000002004F13404A0704FF0030060704FF0F2
:10A0C000000004F8340900E001273AE0C349E06CDD
:10A0D0000968401A2065C149E06C0968884206D1C8
:10A0E000042084F836002046FFF74EFF00E00127E9
:10A0F00027E0BA49E06C0968401A2065B749E06C6E
:10A10000096888421AD10020E065A4F8600001F0D7
:10A1100085F920642046F9F704FC2046FFF734FF58
:10A12000042004F13404A0704FF0030060704FF07D
:10A13000000004F8340902E006E001E0012700E035
:10A1400000BF00BF4C4600E00127002F3FF474AF72
:10A1500001F064F9461BA4480068B04201D2A2484D
:10A16000066000BF00BF00BFF6F73EFD834600BF9C
:10A17000F6F76FFD00BF98480078401E96490870BA
:10A1800008460078D0B9F9F725F9984800880028E2
:10A190000BDD00BFF6F73EFD00BF5846F6F728FD81
:10A1A00000BF00BFF9F7C5FD11E000BFF6F732FDB3
:10A1B00000BF5846F6F71CFD00BF08E000BFF6F7E9
:10A1C00029FD00BF5846F6F713FD00BF00BF00BFD2
:10A1D000BDE8F09F1CB500BF0EE001AB6A46002150
:10A1E0000846FFF720F8BDF8040028B98048007839
:10A1F000012801D1FFF7E4FEEFE7002108E0794AEA
:10A2000002EBC100002202608280C2804A1C91B22F
:10A21000734A12889142F2DB704710B58AB0044647
:10A2200000206E49086070490860FFF7E6FF71483A
:10A23000006820B947F2122020800AB010BD6E4895
:10A2400000686E490968884203D247F213202080D3
:10A25000F3E76B4800781F2803D347F211202080D2
:10A26000EBE70B20002105910A46CDE90704069192
:10A2700061480068634909685E4B1B68CDE901319C
:10A28000CDE903025E4800780023AFF2B7025EA179
:10A2900000906248FEF723F800BFCEE72DE9F04FAB
:10A2A0000C4616461D46042E1ED1DFF83091D9F813
:10A2B0000090A4EB0909A9F1010313F5803F0DD922
:10A2C0004FF00009C0F84C90C0F85090C0F81C90B6
:10A2D00047F27E29A5F80090BDE8F08FC46403F131
:10A2E0000109C0F850903FE084B3082E25D1D0F882
:10A2F000489009EB0407DFF8E490D9F80090A7EB49
:10A300000909A9F10103A34201D2C76406E0DFF8FD
:10A31000CC90D9F80090A144C0F84C90DFF8BCA0D4
:10A32000D0F84C90DAF800A0A9EB0A09C0F85090D8
:10A33000D0F84C90C0F8489016E0DFF8A090D9F81B
:10A340000090A144C0F84C9004650DE0FFE74FF089
:10A350000009C0F84C90C0F85090C0F81C9047F22B
:10A360007E29A5F80090B7E7DFF874A0BAF800A03E
:10A37000D0F84C90B9FBFAFB0AFB1B991FFA89F83D
:10A38000DFF8609009EBC802B2F80490B9F1000F51
:10A390000BD14FF00009C0F81490C0F8189010606D
:10A3A0004FF00109A2F8049063E0116859E0DFF86A
:10A3B0002CA0D1F84C90DAF800A0A9EB0A09C1F85A
:10A3C0005090D0F85090D1F850A0D14533D9D1F861
:10A3D0001490B9F1000F23E0C0000020F800002025
:10A3E00038B80008C0810020FC0000208400002054
:10A3F0007800002028B8000830B800081CB8000811
:10A4000024B800082CB8000875432F4F532D494934
:10A4100049205469636B205461736B00B488002039
:10A4200001D049691DE04FF00009C0F81490816126
:10A430004861002115E0D1F81890B9F1000F07D15B
:10A440004FF00009C0F8189041618861106007E082
:10A45000D1F818C0C0F818C04161CCF81400886168
:10A4600000210029A3D1B2F8049009F10109A2F852
:10A470000490B2F80690B2F804A0D14503DAB2F81D
:10A480000490A2F80690C2614FF00009A5F8009070
:10A4900000BF21E7002006E0054A02EBC0010022D0
:10A4A000CA80421C90B2034A12889042F4DB704783
:10A4B000C081002038B800082DE9F04105460E465D
:10A4C00014460027FE480078002804DD47F2752076
:10A4D0002080BDE8F081FB480078002803DD46F6C7
:10A4E00063502080F5E736B1022E05D0042E0AD045
:10A4F000082E09D101E000BF00BF1DB947F27E2040
:10A500002080E6E704E003E045F625602080E0E7F0
:10A5100000BF00BF00BF00BFF6F766FB074600BFE5
:10A52000F6F797FB00BFE7480078401CE549087044
:10A5300008460078012801D1F8F70AFF00BFF6F7B6
:10A5400069FB00BF3846F6F753FB00BF00BF00BFF2
:10A550000120DD49096881F8360023463246294644
:10A56000D9480068FFF79AFE2088F0B100BF00BF0D
:10A5700000BFF6F739FB074600BFF6F76AFB00BFDE
:10A58000D0480078401ECF4908700846007808B9C6
:10A59000F8F720FF00BFF6F73DFB00BF3846F6F79F
:10A5A00027FB00BF00BF00BF93E7C7480068F9F76B
:10A5B000FCF800BF00BF00BFF6F716FB074600BF60
:10A5C000F6F747FB00BFBF480078401EBD49087042
:10A5D0000846007808B9F8F7FDFE00BFF6F71AFB49
:10A5E00000BF3846F6F704FB00BF00BF00BFF8F716
:10A5F0006CFE0020208000BF6BE72DE9FF5F054661
:10A600000E4617469846DDE90EA400200090AC489F
:10A610000078002804DD47F275202080BDE8FF9F08
:10A62000A8480078002803DD46F663502080F5E74F
:10A630000AF00E0BBBF1000F09D0BBF1020F07D0DF
:10A64000BBF1040F10D0BBF1080F0ED101E000BF29
:10A6500000BFB8F1000F06D12FB926B91DB947F2D6
:10A660007E202080DAE704E003E045F625602080C4
:10A67000D4E700BF3AF01E0001D0012000E0002026
:10A6800003900398012803D145F625602080C5E793
:10A69000CAF3001002900298C0B9B8F57A7F03D3CC
:10A6A00047F27B202080B9E73B2F03DD47F27A2079
:10A6B0002080B3E73B2E03DD47F279202080ADE711
:10A6C000632D12DD47F278202080A7E742F20F7059
:10A6D000864203DD47F2792020809FE7B5F57A7F37
:10A6E00003DB47F27820208098E77848D0F8009084
:10A6F0004FF4FA70B0FBF9F0404400FB09F04FF45E
:10A700007A71B0FBF1F14FF461606843C6EB061259
:10A7100000EB8200384400FB0910019001980028EA
:10A7200073D000BF00BF00BFF6F75EFA009000BF15
:10A73000F6F78FFA00BF63480078401C6149087043
:10A7400008460078012801D1F8F702FE00BFF6F7AD
:10A7500061FA00BF0098F6F74BFA00BF00BF00BFD8
:10A7600001205949096881F8360023465A4656485F
:10A7700001990068FFF792FD2088F0B100BF00BF8B
:10A7800000BFF6F731FA009000BFF6F762FA00BF9B
:10A790004C480078401E4B4908700846007808B9BC
:10A7A000F8F718FE00BFF6F735FA00BF0098F6F785
:10A7B0001FFA00BF00BF00BF30E743480068F8F74A
:10A7C000F4FF00BF00BF00BFF6F70EFA009000BF15
:10A7D000F6F73FFA00BF3B480078401E3949087041
:10A7E0000846007808B9F8F7F5FD00BFF6F712FA49
:10A7F00000BF0098F6F7FCF900BF00BF00BFF8F7F4
:10A8000064FD0020208003E0FFE747F27E202080E7
:10A8100000BF03E770B505460C46002628480078BF
:10A82000002803DD47F27620208070BD1DB947F275
:10A8300051102080F9E700BF00BFF6F7D5F90646B2
:10A8400000BFF6F706FA00BF1F48006885420CD12A
:10A8500047F25110208000BFF6F7DCF900BF304608
:10A86000F6F7C6F900BF00BFDFE795F83600082805
:10A8700075D2DFE800F004115A677582C0CD00BFC1
:10A88000F6F7C8F900BF3046F6F7B2F900BF00BFCF
:10A8900047F251102080D5E000BF0A480078401CE4
:10A8A0000849087008460078012801D1F8F750FDE2
:10A8B00000BFF6F7AFF900BF3046F6F799F907E0A9
:10A8C00070000020C00000201801002020B80008FF
:10A8D00000BF00BF00BF002085F836002846FFF704
:10A8E00053FB2846F9F780F800BF00BF00BFF6F71A
:10A8F0007BF9064600BFF6F7ACF900BF7C4800784C
:10A90000401E7B4908700846007808B9F8F762FDD8
:10A9100000BFF6F77FF900BF3046F6F769F900BFD0
:10A9200000BF00BF002020808CE000BFF6F772F966
:10A9300000BF3046F6F75CF900BF00BF47F2511088
:10A9400020807FE000BFF6F765F900BF3046F6F7DC
:10A950004FF900BF00BF47F25110208072E064E061
:10A9600000BFF6F757F900BF3046F6F741F900BFD0
:10A9700000BF47F25110208064E000BF5C480078BF
:10A98000401C5B49087008460078012801D1F8F79F
:10A99000DFFC00BFF6F73EF900BF3046F6F728F9B6
:10A9A00000BF00BF00BF042085F836002846FFF72F
:10A9B000EBFA00BF00BF00BFF6F716F9064600BF6E
:10A9C000F6F747F900BF4A480078401E484908702A
:10A9D0000846007808B9F8F7FDFC00BFF6F71AF949
:10A9E00000BF3046F6F704F900BF00BF00BF47F2D2
:10A9F0005A10208026E000BFF6F70CF900BF304661
:10AA0000F6F7F6F800BF00BF47F25110208019E0BA
:10AA100000BFF6F7FFF800BF3046F6F7E9F800BFD1
:10AA200000BF47F2511020800CE000BFF6F7F2F8AB
:10AA300000BF3046F6F7DCF800BF00BF46F62D60D9
:10AA4000208000BF00BFF8F740FC00BFEDE670B506
:10AA50000446002600BF00BFF6F7C6F8064600BF52
:10AA6000F6F7F7F800BF2348056800BFF6F7D2F8FD
:10AA700000BF3046F6F7BCF800BF00BF00202080C2
:10AA8000284670BD70B504460D46002600BF00BFC5
:10AA9000F6F7AAF8064600BFF6F7DBF800BF154840
:10AAA000046000BFF6F7B6F800BF3046F6F7A0F82E
:10AAB00000BF00BF0020288070BD10B586B0F8F739
:10AAC0004BFA00F0ABFC044605A800210091CDE94B
:10AAD000011403900848007800EB4000074A02EB9D
:10AAE000800100231A460648FAF7B0FA06B010BDF6
:10AAF000C0000020F8000020A60000206C86002086
:10AB00005449434B0021C162F949096811B9002138
:10AB1000016305E0F64909680163F5490968C862FF
:10AB2000F349086070472DE9F84F044688461646F9
:10AB30001F46DDE90BABDDF828900D9D002000904D
:10AB4000EC480078002804DD47F243302880BDE857
:10AB5000F88F1CB945F6C3502880F8E7B9F1010F0A
:10AB600008D0B9F1020F0BD11FB947F2403028804D
:10AB7000EDE709E01EB947F23F302880E7E703E040
:10AB800045F625602880E2E700BF00BF00BF00BF98
:10AB9000F6F72AF8009000BFF6F75BF800BFD6483A
:10ABA0000078401CD449087008460078012801D17B
:10ABB000F8F7CEFB00BFF6F72DF800BF0098F6F7C8
:10ABC00017F800BF00BF00BF012084F82A00CB485F
:10ABD0002060C4F8048026620020A061E061676202
:10ABE000A4F82890C4F808A0C4F80CB020616061F3
:10ABF0002046FFF787FFC2480088401CC0490880F4
:10AC000000BF00BF00BFF5F7EFFF009000BFF6F7F1
:10AC100020F800BFB8480078401EB74908700846C1
:10AC2000007808B9F8F7D6FB00BFF5F7F3FF00BFCF
:10AC30000098F5F7DDFF00BF00BF00BF00202880AF
:10AC400000BF84E7002180F82A10AE490160AEA160
:10AC50004160002101628161C161416201858160C1
:10AC6000C160016141617047F0B5A94E36888569C0
:10AC7000B5FBF6F706FB1755ACB2A64D05EBC402C3
:10AC80001568854205D10169116039B100254D6112
:10AC900004E0416903690B6103B15961012580F842
:10ACA0002A5000250561456195886D1E9580F0BD8F
:10ACB000C26A016B3AB98E4B196009B10023CB62AD
:10ACC0000023036309E019B900231363C36204E09E
:10ACD0001163CA6200230363C3627047F8B5064676
:10ACE0000C4684480078002804DD47F24330208079
:10ACF0000020F8BD26B947F2423020800020F8E756
:10AD00007E493068884204D045F6C4502080002037
:10AD1000EFE76846F8F726FB3046FFF7C9FF7848AB
:10AD20000088401E7649088096F82A00F0B1012874
:10AD300011D0022802D0032820D10DE03046FFF7C1
:10AD400093FF3046FFF77EFF6846F8F759FB002077
:10AD5000208001251AE000BF3046FFF773FF6846E8
:10AD6000F8F74EFB0020208001250FE06846F8F739
:10AD700047FB47F23D302080002507E06846F8F7A2
:10AD80003FFB47F241302080002500BF00BF28462E
:10AD9000AFE7F8B504460E4656480078002804DDB3
:10ADA00047F2433030800020F8BD24B947F24230EA
:10ADB00030800020F8E751492068884204D045F6E9
:10ADC000C45030800020EFE76846F8F7CBFA94F8DB
:10ADD0002A0048B301280FD0022802D003282BD123
:10ADE0001BE04D49A0690968451AE5616846F8F716
:10ADF00007FB0020308027E0208D022805D1206A43
:10AE000008B9656A02E0256A00E0256AE5616846DE
:10AE1000F8F7F6FA0020308016E06846F8F7F0FA06
:10AE20000020308000250FE06846F8F7E9FA47F285
:10AE30003D303080002507E06846F8F7E1FA47F238
:10AE400041303080002500BF00BF2846ACE7F0B598
:10AE50000C46022680F82A60012C05D12E4F466A46
:10AE60003F683E4486610CE0066A2EB92A4F466A66
:10AE70003F683E44866104E0274F066A3F683E44CF
:10AE80008661234F3F888669B6FBF7FC07FB1C668B
:10AE9000B5B2204E06EBC502166836B9002606612B
:10AEA000466110600126968043E01B4F86693F682B
:10AEB000F61BC661116837E0174F8E693F68F61BB5
:10AEC000CE61C669CF69BE4209D90E690EB1096962
:10AED0002AE00026066141610861002124E04E69F4
:10AEE000E6B9002646610161486110601BE0000080
:10AEF0000001002070000020C0000020544D5220AE
:10AF0000040100204E4F4E453F544D5200000000BA
:10AF100058B80008488400200C0100204B694361A8
:10AF200001611861486100210029C5D19688761C0D
:10AF30009680D6889788BE4201DA9688D680F0BD82
:10AF4000F8B506460C46F1480078002804DD47F2C3
:10AF5000433020800020F8BD26B947F242302080DF
:10AF60000020F8E7EA493068884204D045F6C4502A
:10AF700020800020EFE76846F8F7F4F996F82A00F9
:10AF800000B3012812D0022802D0032822D10EE0FB
:10AF90003046FFF769FE00213046FFF758FF68464C
:10AFA000F8F72EFA0020208001251BE000BF0021C9
:10AFB0003046FFF74CFF6846F8F722FA0020208061
:10AFC00001250FE06846F8F71BFA47F23D30208074
:10AFD000002507E06846F8F713FA47F24130208071
:10AFE000002500BF00BF2846B5E72DE9F041054622
:10AFF0000C460027C5480078002805DD47F243309D
:10B0000020800020BDE8F08125B947F24230208041
:10B010000020F7E7BE492868884204D045F6C450AE
:10B0200020800020EEE700BF00BFF5F7DDFD0746FA
:10B0300000BFF5F70EFE00BF95F82A6036B1012E6D
:10B0400005D0022E05D0032E06D101E000BF00BFBF
:10B0500000BF0020208003E047F24130208000BF85
:10B0600000BF00BFF5F7D6FD00BF3846F5F7C0FDBD
:10B0700000BF00BF3046C5E72DE9F84305468846C6
:10B0800091461C46A1480078002805DD47F2433070
:10B0900020800020BDE8F88325B947F242302080A7
:10B0A0000020F7E79A492868884204D045F6C45042
:10B0B00020800020EEE76846F8F754F995F82A005A
:10B0C000002841D0012837D0022802D0032843D1DC
:10B0D00031E02846FFF7C8FD00202080B8F1000FBE
:10B0E0001AD0B8F1030F03D0B8F1040F15D109E05D
:10B0F000AE681EB12846E968B04702E047F2443026
:10B10000208012E0AE681EB149462846B04702E0F2
:10B1100047F24430208008E007E06846F8F770F90D
:10B1200045F6256020800020B4E700BF6846F8F7A8
:10B1300067F9012718E000BF6846F8F761F947F2A0
:10B140004930208001270FE06846F8F759F947F2A7
:10B150003D302080002707E06846F8F751F947F2B4
:10B1600041302080002700BF00BF384692E71CB561
:10B1700000BF53E001AB6A4600210846FEF753F8D2
:10B1800001A8F8F7EFF800F049F9064661480068B1
:10B19000401C60490860084600685F490988B0FBA8
:10B1A000F1F201FB12001FFA80FA5C4800EBCA08BA
:10B1B000D8F800404FF0000B21E0F4B1D4F8109023
:10B1C0005449A0690968884214D12046FFF74CFD14
:10B1D000208D022804D101212046FFF738FE02E02D
:10B1E000032084F82A00A56815B12046E168A84725
:10B1F0004C4604E04FF0010B01E04FF0010BBBF1B6
:10B20000000FDAD000F00AF9871B01A8F8F7F8F868
:10B2100043480068B84201D241480760AAE770B5C8
:10B220008AB0044600203F4908603F48006840B1AA
:10B230003E4800683C490968B0FBF1F03C490860B1
:10B2400006E03A4800680A21B0FBF1F0384908608E
:10B25000374800683749086000202E4908603049A7
:10B260000860002508E02D4800EBC5060020B080EE
:10B27000F0803060681C85B2274800888542F2DB88
:10B280002D48006820B947F2473020800AB070BDD1
:10B290002A4800682A490968884203D247F24830A0
:10B2A0002080F3E7274800781F2803D347F2463071
:10B2B0002080EBE70B2000210591CDE907040691E2
:10B2C00008461E490968204A12681B4B1B68CDE9D5
:10B2D0000132CDE903101B4800780023AFF2711250
:10B2E0001AA100901F48FCF7FAFF00BFCEE700202C
:10B2F00006E00A4A02EBC0010022CA80421C90B25A
:10B30000054A12889042F4DB70470000700000206C
:10B31000544D52200C01002058B8000848840020E9
:10B32000080100200001002044B8000820B80008EF
:10B33000100100201401002048B8000850B800088F
:10B340001CB8000840B800084CB8000875432F4FDF
:10B35000532D4949492054696D6572205461736BBE
:10B36000000000007C89002010B54FF4A060F4F7C5
:10B37000E9FF10BD00B585B06846F5F7FAFA019807
:10B3800005B000BD70B5FFF7F5FF04463248006810
:10B39000B4FBF0F52846F7F705FE70BD10B5FFF7D2
:10B3A000E3FF00F061F8FFF7EDFF10BD70B5034655
:10B3B00000BF4FF0E026756903EBC306F4000022DE
:10B3C0004FF0E026B16910E04FF0E026B069884206
:10B3D0000BD0884202D20E1A324402E02E1A0E44DA
:10B3E00032440146A24200D300E0EDE700BF70BD49
:10B3F00010B51A48006840F08070184908600020B5
:10B40000174948600846006840F001000860FFF7EF
:10B41000B1FF04462046F5F702FD10BD1048406814
:10B4200070472DE9F0478246FFF7A4FF4FF000096F
:10B4300080460C4A00234046494600F043F8064641
:10B4400032460B465046002100F03CF804460D46BB
:10B4500020462946BDE8F08720B80008FCED00E052
:10B46000001000E040420F0008B501211820F5F758
:10B47000EDFA0120ADF8000010208DF80300032044
:10B480008DF8020069460D48F5F72AF80820ADF856
:10B49000000069460A48F5F723F81020ADF80000CF
:10B4A00069460748F5F71CF801210448F5F7C3F889
:10B4B00018210348F5F7BFF808BD0000000C014053
:10B4C000001001402DE9F05F0546002092469B46A2
:10B4D00088460646814640241BE0284641464746AA
:10B4E000224600F02FF853465A46C01A914110D315
:10B4F00011461846224600F016F82D1A67EB01088F
:10B500004F4622460120002100F00DF817EB0009FC
:10B510004E41201EA4F10104DFDC484631462A4694
:10B520004346BDE8F09F202A04DB203A00FA02F1EE
:10B53000002070479140C2F1200320FA03F3194321
:10B5400090407047202A04DB203A21FA02F00021C3
:10B55000704721FA02F3D040C2F120029140084323
:10B5600019467047064C074D06E0E06840F00103BD
:10B5700094E8070098471034AC42F6D3F4F7DCFDAA
:10B58000D0B90008F0B9000818484FF0FF01017069
:10B59000002080F309881648016881F3088815485F
:10B5A0004FF08051016062B6FEE772B6EFF309809A
:10B5B00028B1203880E8F00F0F490968086000B50D
:10B5C0000E4880475DF804EB0D480E490A7802707A
:10B5D00009480D490A680260106890E8F00F2030B1
:10B5E00080F309884EF0040E62B6704722ED00E049
:10B5F0004800002004ED00E018010020C72E0008DC
:10B60000A6000020A70000201C01002002E008C8BE
:10B61000121F08C1002AFAD170477047002001E0CC
:10B6200001C1121F002AFBD1704708070606050555
:10B6300005050404040404040404030303030303CE
:10B6400003030303030303030303020202020202D0
:10B6500002020202020202020202020202020202CA
:10B6600002020202020202020202010101010101C0
:10B6700001010101010101010101010101010101BA
:10B6800001010101010101010101010101010101AA
:10B69000010101010101010101010101010101019A
:10B6A0000101010101010101010100000000000090
:10B6B000000000000000000000000000000000008A
:10B6C000000000000000000000000000000000007A
:10B6D000000000000000000000000000000000006A
:10B6E000000000000000000000000000000000005A
:10B6F000000000000000000000000000000000004A
:10B700000000000000000000000000000000000039
:10B710000000000000000000000000000000000029
:10B72000000000000000000000000000FFFFFFFF1D
:10B73000FFFFFFFFFFFFFF7F55555555FFFFFF3F01
:10B7400033333333AAAAAA2A24499224FFFFFF1FC6
:10B750001CC7711C9999991974D1451755555515E0
:10B76000133BB1139224491211111111FFFFFF0F66
:10B770000F0F0F0F8EE3380E5E43790DCCCCCC0C3F
:10B780000CC3300CBAE8A20B2C64210BAAAAAA0A9B
:10B79000A3703D0A899DD8095E427B09499224091C
:10B7A000B0DCD3088888880884104208FFFFFF07B0
:10B7B0007CF0C1078787870707755007C7711C078B
:10B7C000407000200C00000080000000000200001B
:10B7D000407200200A000000400100008073002039
:10B7E0000C000000800000000002000080750020B6
:10B7F000800000000002000064000000400600001D
:10B80000807700200B0000000A000000C07D0020AF
:10B810000C0000008000000000020000400000005A
:10B82000E80300000A000000C07F00200C000000B8
:10B8300080000000000200001100000088000000ED
:10B840000B0000000A000000488200200C000000ED
:10B8500080000000000200001100000088000000CD
:10B86000901400000101010078563412010100001B
:10B8700000000000000000000000000000000000C8
:10B8800000000000000000000000000000000000B8
:10B890000000000000000000010101002800040079
:10B8A0002000010000000000000000000000000077
:10B8B0000000000000000000000000000000000088
:10B8C0000000000001002000010010000C0010002A
:10B8D0000000000000000000000000000000000068
:10B8E0000000000000000000000000000000000058
:10B8F0000000000000000000000000000101010045
:10B900002C00010120000C00200020000400040095
:10B910000000000000000000000000000000000027
:10B920000000000000000000000000000000000017
:10B930000000000000000000000000000000000007
:10B9400001010101300001000000000000000000C2
:10B9500000000000000000000000000000000000E7
:10B9600000000000000000000000000000000000D7
:10B970000101010128000C00800100000401010107
:10B980000101010101000101C800080001010000DE
:10B9900000000000000000000000000000000000A7
:10B9A0000000000000000000000000000000000097
:10B9B0000000000000000000000000000000000087
:10B9C000000000000101340008005D762A06000036
:10B9D000F0B9000800000020200100000CB60008AB
:10B9E00010BB000820010020289900001CB60008A8
:10B9F00000A24A040000000000000000010203044D
:10BA00000607080900000000010203040102030404
:10BA100006070809020406080000000000000000F4
:10BA20000000000000000000000000000000000016
:10BA30000000000000000000000000000000000006
:10BA400000000000000000000000000000000000F6
:10BA500000000000000000000000000000000000E6
:10BA600000000000000000000000000000000000D6
:10BA700000000000000000000000000000000000C6
:10BA800000000000000000000000000000000000B6
:10BA900000000000000000000000000000000000A6
:10BAA0000000000000000000000000000000000096
:10BAB0000000000000000000000000000000000086
:10BAC0000000000000000000000000000000000076
:10BAD0000000000000000000000000000000000066
:10BAE0000000000000000000000000000000000056
:10BAF0000000000000000000000000000000000046
:10BB00000000000000000000000000000000000035
:0400000508000131BD
:00000001FF
